:100000000228537F027E00123C6BC285C2B4D2929A
:10001000023F0A0238008FCFE5CD30E7FB75CDC037
:10002000AFCF220237867BC37A007DC87C007F0F6A
:100030001226937B097A037DC87C007F10122693D9
:10004000023A5C020046C0E0C083C082C0D053AF19
:10005000FEE59A30E021539AFE74042521F582E4EE
:100060003400F583E59BF00521D3E52194037480EA
:1000700094804003752100E59A30E103539AFD43D3
:0E008000AF01D0D0D082D083D0E0320237045E
:100093000233961206077F2C7E01123C6B122F2F20
:1000A3007FF47E01123C6B123ADF1206077FF47E67
:1000B30001123C6B1217197FF47E01123C6B12166E
:1000C3004A7FF47E01123C6B1206077FF47E011215
:1000D3003C6B1217E67FF47E01123C6B7FF47E01CA
:1000E300123C6B122F807FF47E01123C6B122FD1D6
:1000F3007FF47E01123C6B1230227FF47E01123CAE
:100103006B122FD17FF47E01123C6B1230227FF4ED
:100113007E01123C6B122A6F7FF47E01123C6B7FCF
:10012300F47E01123C6B1229EA7FF47E01123C6BD0
:100133001206E77FF47E01123C6B122B457FF47E9F
:1001430001123C6B122BA37FF47E01123C6B7FF4F4
:100153007E01123C6B122C017FFA7E00123C6B1263
:100163002C5F7FF47E01123C6B122C017FF47E0125
:10017300123C6B122CBD7FF47E01123C6B122C01DE
:100183007FF47E01123C6B1230737FF47E01123CCC
:100193006B1230C47FF47E01123C6B7FFA7E001237
:1001A3003C6B122C01122D1B7FF47E01123C6B124F
:1001B30031157FF47E01123C6B122D1B7FF47E01FF
:1001C300123C6B1231667FF47E01123C6B122D1BC5
:1001D3007F647E00123C6B120C277F647E00123C0E
:1001E3006B120D037FF47E01123C6B120DDF7FF463
:1001F3007E01123C6B1233E17FC87E00123C6B120E
:100203003B097FC87E00123C6B123B337FC87E00E4
:10021300123C6B1233E17FC87E00123C6B123B0928
:100223007FC87E00123C6B1207C77FC87E00123C5A
:100233006B1238767FC87E00123C6B1238AD7FC8D4
:100243007E00123C6B1238E47FC87E00123C6B12B6
:10025300391B7FC87E00123C6B1239527F647E00CB
:10026300123C6B1239897F647E00123C6B12342A74
:100273007FC87E00123C6B122DD77FC87E00123CD4
:100283006B1218B17F327E00123C6B120EB77FC81F
:100293007E00123C6B1208A77FC87E00123C6B12D3
:1002A30009877FF47E01123C6B1225297FF47E01BE
:1002B300123C6B12197C7FF47E01123C6B122ADA1A
:1002C3007FF47E01123C6B123B5D7FF47E01123C96
:1002D3006B1231B77FF47E01123C6B1223BC7FF4A7
:1002E3007E01123C6B123208123B87123208123B1A
:1002F30087123208123B877F2C7E01123C6B122E31
:100303002D7F2C7E01123C6B122D797F2C7E0112E6
:100313003C6B120F8F7F2C7E01123C6B1234737F68
:100323002C7E01123C6B1227257F2C7E01123C6B25
:100333001239C07F2C7E01123C6B121A477F2C7E30
:1003430001123C6B1227BC7F2C7E01123C6B1234D2
:10035300BC7F2C7E01123C6B1227BC7F2C7E0112CA
:100363003C6B1234BC7F2C7E01123C6B1227BC7F8A
:100373002C7E01023C6B121FD47F2C7E01123C6B3E
:100383001233497F2C7E01123C6B123C277F2C7E5B
:1003930001123C6B1212EF7F2C7E01123C6B121385
:1003A300C77F2C7E01123C6B1235E07F2C7E01123D
:1003B3003C6B123CE87F2C7E01123C6B123E547F57
:1003C3002C7E01123C6B122E837F2C7E01123C6B20
:1003D3007FF47E01123C6B7FF47E01123C6B1206AC
:1003E300077FF47E01123C6B122F2F7FF47E0112E4
:1003F3003C6B123ADF1206077FF47E01123C6B124C
:1004030017197FF47E01123C6B12164A7FF47E01AA
:10041300123C6B12149F7F2C7E01123C6B123C49E1
:100423007FF47E01123C6B7FF47E01123C6B7FF400
:100433007E01123C6B7FF47E01123C6B123D057F03
:10044300F47E01123C6B7FF47E01123C6B7FF47EE1
:1004530001123C6B123BB17F2C7E01123C6B123DAF
:10046300227F2C7E01123C6B123BB17F2C7E01124A
:100473003C6B123D227F2C7E01123C6B123BB17F01
:100483002C7E01123C6B123D227F2C7E01123C6BB1
:10049300120B477F2C7E01123C6B1229657F2C7E49
:1004A30001123C6B1217E67F2C7E01123C6B7F2CF2
:1004B3007E01123C6B122F807FF47E01123C6B1283
:1004C3002FD17FF47E01123C6B1230227FF47E0128
:1004D300123C6B122FD17FF47E01123C6B1230223F
:1004E3007FF47E01123C6B122A6F7FF47E01123C73
:1004F3006B7FF47E01123C6B1229EA7FF47E0112BA
:100503003C6B7F2C7E01123C6B12216A7FF47E01CF
:10051300123C6B1236297FF47E01123C6B1222309F
:100523007FF47E01123C6B1222F67FF47E01123CB3
:100533006B12216A7FF47E01123C6B1215777FF4F4
:100543007E01123C6B1232597FF47E01123C6B1216
:100553003D3F7F2C7E01123C6B1236727F2C7E0155
:10056300123C6B1232AA7F2C7E01123C6B123D5C53
:100573007F2C7E01123C6B1232AA7F2C7E01123C2F
:100583006B123D5C7F2C7E01123C6B122ED97F2CAB
:100593007E01123C6B1215777FF47E01123C6B12C5
:1005A30032597FF47E01123C6B123D3F7F2C7E015A
:1005B300123C6B1236727F2C7E01123C6B1236BBDF
:1005C3007F2C7E01123C6B12209F7F2C7E01123CFC
:1005D3006B12149F7FF47E01123C6B7FF47E011239
:1005E3003C6B7FF47E01123C6B7FF47E01123C6B0B
:1005F3007FF47E01123C6B122F2F7FF47E01123C9D
:100603006B023ADF7BF47A017D907C01E4FF1226D2
:10061300937B0A7A027D907C017F011226937B08EB
:100623007A027D907C017F021226937B967A017D6C
:10063300907C017F031226937B5A7A027D907C0182
:100643007F041226937B757A017D907C017F0512CE
:1006530026937B5C7A027D907C017F061226937B36
:10066300007A027D907C017F071226937BF67A0144
:100673007D907C017F081226937BEB7A017D907C31
:10068300017F091226937B5C7A027D907C017F0AAD
:100693001226937B2A7A027D907C017F0B1226938C
:1006A3007BD07A017D907C017F0C1226937BE77AC5
:1006B300017D907C017F0D1226937BE47A017D906E
:1006C3007C017F0E1226937BF57A017D907C017F5E
:1006D3000F1226937BE47A017D907C017F10122612
:1006E30093023A5C7B797A017D2C7C01E4FF12262C
:1006F300937BF87A017D2C7C017F011226937B0882
:100703007A027D2C7C017F021226937BAB7A017DDA
:100713002C7C017F031226937B657A027D2C7C015E
:100723007F041226937B697A017D2C7C017F05125D
:1007330026937B357A027D2C7C017F061226937BE0
:100743000D7A027D2C7C017F071226937BFD7A01B3
:100753007D2C7C017F081226937B7A7A017D2C7C89
:10076300017F091226937B977A027D2C7C017F0AF5
:100773001226937BCB7A037D2C7C017F0B1226936D
:100783007B377A017D2C7C017F0C1226937BAD7A1B
:10079300017D2C7C017F0D1226937BE77A017D2C52
:1007A3007C017F0E1226937BEA7A017D2C7C017FEC
:1007B3000F1226937BF47A017D2C7C017F10122685
:1007C30093023A5C7BFE7A017D2C7C01E4FF1226C6
:1007D300937B097A027D2C7C017F011226937BCEC9
:1007E3007A017D2C7C017F021226937BFE7A017DA8
:1007F3002C7C017F031226937B4F7A017D2C7C0195
:100803007F041226937B8A7A027D2C7C017F05125A
:1008130026937BEE7A017D2C7C017F061226937B47
:10082300347A027D2C7C017F071226937BFA7A01AE
:100833007D2C7C017F081226937BF87A017D2C7C2A
:10084300017F091226937B757A027D2C7C017F0A36
:100853001226937BCD7A007D2C7C017F0B1226938D
:100863007B2A7A037D2C7C017F0C1226937BB87A3A
:10087300017D2C7C017F0D1226937BE37A017D2C75
:100883007C017F0E1226937BFE7A017D2C7C017FF7
:100893000F1226937BF37A017D2C7C017F101226A5
:1008A30093023A5C7BF87A017D2C7C01E4FF1226EB
:1008B300937402FBFA7D2C7C017F011226937BD774
:1008C3007A017D2C7C017F021226937B017A027DC3
:1008D3002C7C017F031226937B4D7A027D2C7C01B5
:1008E3007F041226937BAA7A017D2C7C017F05125B
:1008F30026937B007A027D2C7C017F061226937B54
:100903003A7A027D2C7C017F071226937BF37A01CE
:100913007D2C7C017F081226937BF57A017D2C7C4C
:10092300017F091226937B507A037D2C7C017F0A79
:100933001226937BE27A007D2C7C017F0B12269397
:100943007B367A037D2C7C017F0C1226937BEE7A17
:10095300007D2C7C017F0D1226937BC77A017D2CB1
:100963007C017F0E1226937BFA7A017D2C7C017F1A
:100973000F1226937BF27A017D2C7C017F101226C5
:1009830093023A5C7BF87A017D2C7C01E4FF12260A
:10099300937B037A027D2C7C017F011226937BE7F4
:1009A3007A017D2C7C017F021226937B147A027DCF
:1009B3002C7C017F031226937BCB7A027D2C7C0156
:1009C3007F041226937B0A7A017D2C7C017F05121A
:1009D30026937BD37A017D2C7C017F061226937BA1
:1009E300207A027D2C7C017F071226937BDF7A011C
:1009F3007D2C7C017F081226937BF57A017D2C7C6C
:100A0300017F091226937B507A037D2C7C017F0A98
:100A13001226937BE27A007D2C7C017F0B122693B6
:100A23007B367A037D2C7C017F0C1226937BEE7A36
:100A3300007D2C7C017F0D1226937BC77A017D2CD0
:100A43007C017F0E1226937BD27A007D2C7C017F62
:100A53000F1226937B0B7A037D5E7C017F10122697
:100A630093023A5C7B507A027D907C01E4FF12266C
:100A7300937BFE7A017D907C017F011226937B1C80
:100A83007A027D907C017F021226937BFF7A017D9F
:100A9300907C017F031226937BD77A027D907C01A1
:100AA3007F041226937BC87A007D907C017F051218
:100AB30026937BCD7A017D907C017F061226937B62
:100AC300DA7A017D907C017F071226937B077A02F5
:100AD3007D907C017F081226937BFD7A017D907CBB
:100AE300017F091226937B5A7A037D907C017F0A4A
:100AF3001226937B817A037D907C017F0B122693D0
:100B03007BAE7A007D907C017F0C1226937BD17A99
:100B1300007D907C017F0D1226937BE17A017D900D
:100B23007C017F0E1226937BC37A007D907C017F2C
:100B33000F1226937B267A037D907C017F10122669
:100B430093023A5C7B287A027DC87C00E4FF12267C
:100B5300937BF47A017DC87C007F011226937BFD91
:100B63007A017DC87C007F021226937BAC7A017DDB
:100B7300C87C007F031226937B467A027DC87C00E3
:100B83007F041226937B8E7A017DC87C007F051239
:100B930026937B577A027DC87C007F061226937BBF
:100BA300037A027DC87C007F071226937B047A02B6
:100BB3007DC87C007F081226937BD07A017D907CD0
:100BC300017F091226937B4F7A027D907C017F0A75
:100BD3001226937BBF7A037D907C017F0B122693B1
:100BE3007B5A7A007D907C017F0C1226937BFF7ADF
:100BF300017D907C017F0D1226937BEE7A017D901F
:100C03007C017F0E1226937BEB7A017DC87C007FEB
:100C13000F1226937BF87A017DC87C007F10122681
:100C230093023A5C7BF47A017D647C00E4FF122634
:100C3300937B0A7A027D647C007F011226937B08F2
:100C43007A027D647C007F021226937B967A017D73
:100C5300647C007F031226937B5A7A027D647C00B6
:100C63007F041226937B757A017D647C007F0512D5
:100C730026937B5C7A027D647C007F061226937B3D
:100C8300007A027D647C007F071226937BF67A014B
:100C93007D647C007F081226937BEB7A017D6412CE
:100CA300268F7B5C7A027D647C007F0A1226937B0D
:100CB3002A7A027D647C007F0B1226937BD07A0113
:100CC3007D647C007F0C1226937BE77A017D647C34
:100CD300007F0D1226937BE47A017D647C007F0EF6
:100CE3001226937BF57A017D647C007F0F12269395
:100CF3007BE47A017D647C007F10122693023A5CC8
:100D03007BFE7A017D967C00E4FF1226937BF77AC3
:100D1300017D967C007F011226937B287A017D96C4
:100D23007C007F021226937B867A027D967C007F6D
:100D3300031226937B177A027D967C007F0412268A
:100D4300937BBF7A017D967C007F051226937B6E91
:100D53007A017DC87C007F061226937BDE7A027DB2
:100D6300C87C007F071226937B0E7A027D967C0057
:100D73007F081226937BE27A017D9612268F7B5899
:100D83007A027D967C007F0A1226937B2E7A027D5F
:100D9300967C007F0B1226937BF47A017D967C0070
:100DA3007F0C1226937BE47A017D967C007F0D12E3
:100DB30026937BE57A017D967C007F0E1226937B3A
:100DC300F27A017D967C007F0F1226937B047A02D0
:100DD3007D967C007F10122693023A5C7BFE7A019B
:100DE3007DC87C00E4FF1226937BF47A017DC87CE6
:100DF300007F011226937B647A017DC87C007F0209
:100E03001226937BC57A017DC87C007F031226934B
:100E13007BD97A007DC87C007F041226937BF27A0B
:100E2300027DC87C007F051226937B297A027DC848
:100E33007C007F061226937BAC7A027DC87C007F00
:100E4300071226937BFF7A017DC87C007F08122658
:100E5300937BE212268B7B2A7A027DC87C007F0A71
:100E63001226937BD97A007D2C7C017F0B1226936B
:100E73007B0A7A037D2C7C017F0C1226937BDB7A21
:100E8300017DC87C007F0D1226937BF37A017DC818
:100E93007C007F0E1226937BDE7A017DC87C007F67
:100EA3000F1226937BF67A017DC87C007F101226F1
:100EB30093023A5C7B157A027DC87C00E4FF12261C
:100EC300937B067A027DC87C007F011226937BD533
:100ED3007A017DC87C007F021226937BFC7A017D18
:100EE300C87C007F031226937B8D7A027DC87C0029
:100EF3007F041226937B687A017DC87C007F0512EC
:100F030026937B2F7A027DC87C007F061226937B73
:100F1300407A027DC87C007F071226937BF87A0112
:100F23007DC87C007F081226937BEF12268B7B28DB
:100F33007A027DC87C007F0A1226937B1E7A017D8C
:100F4300C87C007F0B1226937B0E7A037DC87C003E
:100F53007F0C1226937BF77A017DC87C007F0D12EC
:100F630026937BDF7A017DC87C007F0E1226937B5C
:100F7300FD7A017DC87C007F0F1226937BEE7A01F8
:100F83007DC87C007F10122693023A5C7BF17A01C4
:100F93007DC87C00E4FF1226937B047A027DC87C23
:100FA300007F011226937B187A027DC87C007F02A2
:100FB3001226937B8F7A017DC87C007F03122693D0
:100FC3007B4D7A027DC87C007F041226937BC57A11
:100FD300017DC87C007F051226937B977A027DC82A
:100FE3007C007F061226937BEA7A017DC87C007F12
:100FF300071226937B017A027DC87C007F081226A4
:10100300937BDA12268B7B4A7A027DC87C007F0AA7
:101013001226937B587A037DC87C007F0B1226939C
:101023007BBA7A007DC87C007F0C1226937BDE7A24
:10103300017DC87C007F0D1226937BFA7A017DC85F
:101043007C007F0E1226937BC17A007DC87C007FD3
:101053000F1226937B297A037DC87C007F1012260A
:1010630093023A5C7BEC7A017DC87C00E4FF122694
:10107300937BFD7A017DC87C007F011226937B154B
:101083007A027DC87C007F021226937B247A017D3D
:10109300C87C007F031226937BF17A017DC87C0014
:1010A3007F041226937BD37A007DC87C007F0512D0
:1010B30026937BCB7A017DC87C007F061226937B27
:1010C300DA7A017DC87C007F071226937B087A02B7
:1010D3007DC87C007F081226937BFE12268B7B390A
:1010E3007A027DC87C007F0A1226937BD27A027D26
:1010F300C87C007F0B1226937BAD7A007DC87C00F1
:101103007F0C1226937BB87A007DC87C007F0D127A
:1011130026937BE27A017DC87C007F0E1226937BA7
:10112300C37A007DC87C007F0F1226937B267A0347
:101133007DC87C007F10122693023A5C7B957A026D
:101143007DC87C00E4FF1226937BFD7A017DC87C79
:10115300007F011226937B157A027DC87C007F02F3
:101163001226937B247A017DC87C007F0312269389
:101173007BF17A017DC87C007F041226937BD37AAE
:10118300007DC87C007F051226937BCB7A017DC846
:101193007C007F061226937BDA7A017DC87C007F70
:1011A300071226937B087A027DC87C007F081226EB
:1011B300937BFD12268B7BAE7A017DC87C007F0A70
:1011C3001226937B857A037DC87C007F0B122693BE
:1011D3007BAA7A007DC87C007F0C1226937BBE7AA3
:1011E300007DC87C007F0D1226937B1C7A037DC88B
:1011F3007C007F0E1226937BC37A007DC87C007F20
:101203000F1226937B267A037DC87C007F1012265B
:1012130093023A5C7B4E7A027DC87C00E4FF12267F
:10122300937BFF7A017DC87C007F011226937BCCE0
:101233007A017DC87C007F021226937B8E7A017D22
:10124300C87C007F031226937B677A027DC87C00EB
:101253007F041226937B787A017DC87C007F051278
:1012630026937BAA7A027DC87C007F061226937B95
:10127300D87A017DC87C007F071226937B037A020C
:101283007DC87C007F081226937BF712268B7B4157
:101293007A027DC87C007F0A1226937B6B7A017DDC
:1012A300C87C007F0B1226937BA87A027DC87C0042
:1012B3007F0C1226937B0E7A027DC87C007F0D1271
:1012C30026937BE07A017DC87C007F0E1226937BF8
:1012D300BA7A007DC87C007F0F1226937B1B7A03AA
:1012E3007DC87C007F10122693023A5C7B287A0229
:1012F3007DC87C00E4FF1226937BF47A017DC87CD1
:10130300007F011226937B107A027DC87C007F0246
:101313001226937BAD7A017DC87C007F031226934E
:101323007B7D7A027DC87C007F041226937B517AF1
:10133300017DC87C007F051226937B597A027DC804
:101343007C007F061226937BE27A017DC87C007FB6
:10135300071226937BF77A017DC87C007F0812264B
:10136300937BC212268B7B727A027DC87C007F0A34
:101373001226937B437A027DC87C007F0B1226934F
:101383007BD37A017DC87C007F0C1226937BDF7AA6
:10139300017DC87C007F0D1226937BE47A017DC812
:1013A3007C007F0E1226937BE07A017DC87C007F50
:1013B3000F1226937BE57A017DC87C007F101226ED
:1013C30093023A5C7B287A027DC87C00E4FF1226F4
:1013D300937BEB7A017DC87C007F011226937B13FC
:1013E3007A027DC87C007F021226937BAA7A017D54
:1013F300C87C007F031226937B797A027DC87C0028
:101403007F041226937B547A017DC87C007F0512EA
:1014130026937B5D7A027DC87C007F061226937B30
:10142300E37A017DC87C007F071226937BFC7A0157
:101433007DC87C007F081226937BF112268B7B6E7E
:101443007A027DC87C007F0A1226937B407A027D54
:10145300C87C007F0B1226937BC17A017DC87C0078
:101463007F0C1226937BE17A017DC87C007F0D12ED
:1014730026937BE47A017DC87C007F0E1226937B42
:10148300E77A017DC87C007F0F1226937BE77A0100
:101493007DC87C007F10122693023A5C7B287A0277
:1014A3007DC87C00E4FF1226937BEC7A017DC87C27
:1014B300007F011226937B0C7A027DC87C007F0299
:1014C3001226937BAD7A017DC87C007F031226939D
:1014D3007B6C7A027DC87C007F041226937B787A2A
:1014E300017DC87C007F051226937B587A027DC854
:1014F3007C007F061226937BFD7A017DC87C007FEA
:10150300071226937B037A027DC87C007F0812268C
:10151300937BD312268B7B4F7A027DC87C007F0A94
:101523001226937B367A027DC87C007F0B122693AA
:101533007BD37A017DC87C007F0C1226937BE17AF2
:10154300017DC87C007F0D1226937BEE7A017DC856
:101553007C007F0E1226937BE97A017DC87C007F95
:101563000F1226937BF17A017DC87C007F1012262F
:1015730093023A5C7BEE7A017D907C017F01122617
:10158300937B0B7A027D907C017F021226937BBFB3
:101593007A017D907C017F031226937B837A027DFF
:1015A300907C017F041226937B5B7A017D907C0102
:1015B3007F051226937B437A027D907C017F06127E
:1015C30026937BFA7A017D907C017F071226937B19
:1015D300077A027D907C017F081226937BEA7A01C9
:1015E3007D907C017F091226937B597A027D907C42
:1015F300017F0A1226937BA27A017D907C017F0BE7
:101603001226937BA07A007D907C017F0C12269397
:101613007BF87A017D907C017F0D1226937B257ADE
:10162300037D907C017F0E1226937BDA7A017D90F5
:101633007C017F0F1226937BEE7A017D907C017FE4
:1016430010122693023A5C7B177A027DFA7C007FA4
:10165300011226937B087A027DFA7C007F02122610
:10166300937B8E7A017DFA7C007F031226937B4B5A
:101673007A027DFA7C007F041226937B807A017DB7
:10168300FA7C007F051226937B5E7A027DFA7C004A
:101693007F061226937B007A027DFA7C007F071275
:1016A30026937B587A027DFA7C007F081226937B6F
:1016B300E57A017DFA12268F7B5A7A027DFA7C0045
:1016C3007F0A1226937B337A027DFA7C007F0B120A
:1016D30026937B5E7A007DFA7C007F0C1226937B37
:1016E3003C7A017DFA7C007F0D1226937BE47A011C
:1016F3007DFA7C007F0E1226937BF27A017DFA7CC1
:10170300007F0F1226937BDE7A017DFA7C007F1027
:10171300122693023A5C7B9A7A017DFA7C007F0160
:101723001226937B0A7A027DFA7C007F02122693AB
:101733007B8D7A017DFA7C007F031226937B4D7AA1
:10174300027DFA7C007F041226937B847A017DFA62
:101753007C007F051226937B5E7A027DFA7C007FF4
:10176300061226937B007A027DFA7C007F071226FD
:10177300937BF37A017DFA7C007F081226937BE743
:101783007DFA12268D7BEA7A027DFA7C007F0A12AB
:1017930026937BD27A037DFA7C007F0B1226937B00
:1017A300D07A017DFA7C007F0C1226937BE57A01C7
:1017B3007DFA7C007F0D1226937BE47A017DFA7C0F
:1017C300007F0E1226937BFC7A017DFA7C007F0F4B
:1017D3001226937BF17A017DFA7C007F1012269307
:1017E300023A5C7BF77A017DC87C007F0112269365
:1017F3007B287A017DC87C007F021226937B867A40
:10180300027DC87C007F031226937B177A027DC872
:101813007C007F041226937BBF7A017DC87C007F06
:10182300051226937B6E7A017DC87C007F06122603
:10183300937BDE7A027DC87C007F071226937B0EA2
:101843007A027DC87C007F081226937BE312268BE5
:101853007B527A027DC87C007F0A1226937B4D7AE5
:10186300027DC87C007F0B1226937BD87A017DC84A
:101873007C007F0C1226937BE17A017DC87C007F7C
:101883000D1226937BE57A017DC87C007F0E12261C
:10189300937BF27A017DC87C007F0F1226937B0431
:1018A3007A027DC87C007F10122693023A5C7B0784
:1018B3007A027DC87C007F011226937BF27A007D39
:1018C300C87C007F021226937BDD7A027DC87C00F0
:1018D3007F031226937BC07A027DC87C007F0412AB
:1018E30026937B337A017DC87C007F051226937B88
:1018F300067A027DC87C007F061226937B007A025B
:101903007DC87C007F071226937BD87A017DC87C33
:10191300007F081226937BFD12268B7B357A027D8E
:10192300C87C007F0A1226937B1C7A017DC87C0049
:101933007F0B1226937BF37A027DC87C007F0C1207
:1019430026937BF77A017DC87C007F0D1226937B5B
:10195300E17A017DC87C007F0E1226937BF77A0122
:101963007DC87C007F0F1226937BDD7A017DC87CC6
:10197300007F10122693023A5C7BF67A017DC87CC5
:10198300007F011226937B537A027DC87C007F027D
:101993001226937B507A027DC87C007F0312269324
:1019A3007B417A037DC87C007F041226937B7B7A7C
:1019B300007DC87C007F051226937B7A7A017DC85F
:1019C3007C007F061226937BD87A017DC87C007F3A
:1019D300071226937B077A027DC87C007F081226B4
:1019E300937BE512268B7B547A027DC87C007F0AA9
:1019F3001226937B967A017DC87C007F0B12269377
:101A03007B827A027DC87C007F0C1226937B127A3C
:101A1300027DC87C007F0D1226937BD07A017DC89E
:101A23007C007F0E1226937BBB7A007DC87C007FEF
:101A33000F1226937B277A037DC87C007F10122622
:101A430093023A5C7BFE7A017DC87C007F011226FB
:101A5300937B2A7A027DC87C007F021226937B86C1
:101A63007A017DC87C007F031226937BC67A017DB1
:101A7300C87C007F041226937B017A027DC87C0018
:101A83007F051226937B2A7A027DC87C007F06128B
:101A930026937B3B7A027DC87C007F071226937BCB
:101AA300D77A017DC87C007F081226937BCF12264C
:101AB3008B7B2B7A027DC87C007F0A1226937B1ACC
:101AC3007A037DC87C007F0B1226937B0D7A017D00
:101AD300C87C007F0C1226937BD57A017DC87C00DD
:101AE3007F0D1226937B317A027DC87C007F0E1214
:101AF30026937BE17A017DC87C007F0F1226937BBE
:101B0300CE7A017DC87C007F10122693023A5C7B5B
:101B1300FE7A017DC87C007F011226937B217A0225
:101B23007DC87C007F021226937BC47A017DC87C2A
:101B3300007F031226937B707A027DC87C007F04AA
:101B43001226937B6B7A017DC87C007F0512269356
:101B53007B2C7A027DC87C007F061226937BE47A75
:101B6300017DC87C007F071226937BFA7A017DC82A
:101B73007C007F081226937BE012268B7B357A024A
:101B83007DC87C007F0A1226937B367A037DC87C4E
:101B9300007F0B1226937BE67A007DC87C007F0CC6
:101BA3001226937BE07A017DC87C007F0D12269379
:101BB3007B007A027DC87C007F0E1226937BB57A68
:101BC300017DC87C007F0F1226937B2B7A027DC890
:101BD3007C007F10122693023A5C7BFF7A017DC85A
:101BE3007C007F011226937B147A027DC87C007FE0
:101BF300021226937B277A017DC87C007F0312267D
:101C0300937BF57A017DC87C007F041226937BA623
:101C13007A017DC87C007F051226937B9A7A027D28
:101C2300C87C007F061226937BD77A017DC87C008F
:101C33007F071226937B067A027DC87C007F0812F9
:101C430026937BFC12268B7B207A027DC87C007F47
:101C53000A1226937BFC7A027DC87C007F0B122636
:101C6300937B2D7A017DC87C007F0C12269374022E
:101C7300FBFA7DC87C007F0D1226937BC07A017D21
:101C8300C87C007F0E1226937BC37A007DC87C003C
:101C93007F0F1226937B147A037DC87C007F10127A
:101CA3002693023A5C7BFF7A017DC87C007F011298
:101CB30026937B267A027DC87C007F021226937BC3
:101CC300917A017DC87C007F031226937BA97A0257
:101CD3007DC87C007F041226937B067A017DC87C35
:101CE300007F051226937B247A027DC87C007F0641
:101CF3001226937B017A027DC87C007F071226930C
:101D03007B017A027DC87C007F081226937BF51243
:101D1300268B7B577A037DC87C007F0A1226937B30
:101D2300047A017DC87C007F0B1226937B197A030A
:101D33007DC87C007F0C1226937BCC7A007DC87C07
:101D4300007F0D1226937BCA7A017DC87C007F0E2B
:101D53001226937BFA7A017DC87C007F0F122693AB
:101D63007BEA7A017DC87C007F10122693023A5CDD
:101D73007B017A027DC87C007F011226937B457A22
:101D8300027DC87C007F021226937BEC7A017DC81A
:101D93007C007F031226937B147A027DC87C007F2C
:101DA300041226937BCA7A017DC87C007F05122624
:101DB300937B2C7A027DC87C007F061226937BB925
:101DC3007A017DC87C007F071226937BFE7A017D12
:101DD300C87C007F081226937BF512268B7B5B7AE7
:101DE300037DC87C007F0A1226937BBF7A007DC8DF
:101DF3007C007F0B1226937B667A037DC87C007F71
:101E03000C1226937BC67A007DC87C007F0D1226B8
:101E1300937BCD7A017DC87C007F0E1226937BF3E2
:101E23007A017DC87C007F0F1226937BEC7A017DBB
:101E3300C87C007F10122693023A5C7B077A027DEE
:101E4300C87C007F011226937B6E7A027DC87C00DA
:101E53007F021226937BE57A017DC87C007F031203
:101E630026937BEB7A017DC87C007F041226937B4B
:101E7300D37A017DC87C007F051226937BFF7A010C
:101E83007DC87C007F061226937B967A017DC87CF1
:101E9300007F071226937BFE7A017DC87C007F08B2
:101EA3001226937BF212268B7B4B7A027DC87C0031
:101EB3007F0A1226937BF97A007DC87C007F0B1280
:101EC30026937B2A7A037DC87C007F0C1226937BA2
:101ED300E97A017DC87C007F0D1226937BEB7A01A2
:101EE3007DC87C007F0E1226937BEF7A017DC87C30
:101EF300007F0F1226937BEA7A017DC87C007F1056
:101F0300122693023A5C7BFF7A017DC87C007F0135
:101F13001226937B5A7A017DC87C007F0212269396
:101F23007BD67A017DC87C007F031226937BDC7A03
:101F3300007DC87C007F041226937BE67A027DC86D
:101F43007C007F051226937B0A7A027DC87C007F82
:101F5300061226937BB37A027DC87C007F07122684
:101F6300937BFE7A017DC87C007F081226937BF267
:101F730012268B7B4B7A027DC87C007F0A12269344
:101F83007B0D7A017DC87C007F0B1226937B2A7A16
:101F9300037DC87C007F0C1226937BE77A017DC802
:101FA3007C007F0D1226937BEB7A017DC87C007F3A
:101FB3000E1226937BED7A017DC87C007F0F1226DB
:101FC300937BE87A017DC87C007F10122693023A46
:101FD3005C7402FBFA7DC87C007F011226937B1799
:101FE3007A027DC87C007F021226937B237A017DCF
:101FF300C87C007F031226937BE37A017DC87C00B3
:102003007F041226937BDA7A017DC87C007F051258
:1020130026937B9A7A027DC87C007F061226937BE7
:10202300117A027DC87C007F071226937B047A0213
:102033007DC87C007F081226937BF512268B7B409C
:102043007A037DC87C007F0A1226937B397A037D4D
:10205300C87C007F0B1226937BF97A007DC87C0035
:102063007F0C1226937BE77A007DC87C007F0D12DC
:1020730026937BCC7A017DC87C007F0E1226937B4E
:10208300F57A017DC87C007F0F1226937BE77A01E6
:102093007DC87C007F10122693023A5C7BE47A01B0
:1020A3007DC87C007F011226937B0B7A027DC87C5E
:1020B300007F021226937BBC7A017DC87C007F03DC
:1020C3001226937B797A027DC87C007F04122693C3
:1020D3007B5A7A017DC87C007F051226937B447A64
:1020E300027DC87C007F061226937BF47A017DC8AB
:1020F3007C007F071226937B017A027DC87C007FD8
:10210300081226937BF212268B7B427A037DC87CCE
:10211300007F0A1226937B987A017DC87C007F0B8F
:102123001226937B5E7A007DC87C007F0C12269377
:102133007BD87A017DC87C007F0D1226937B317A90
:10214300037DC87C007F0E1226937BAD7A017DC888
:102153007C007F0F1226937BC97A017DC87C007FA8
:1021630010122693023A5C7B277A027DC87C00E436
:10217300FF1226937BF77A017DC87C007F0112262C
:10218300937BFD7A017DC87C007F021226937BAF8F
:102193007A017DC87C007F031226937B5F7A027DE0
:1021A300C87C007F041226937B7B7A017DC87C0068
:1021B3007F051226937B557A027DC87C007F061229
:1021C30026937B007A027DC87C007F071226937BCF
:1021D300FE7A017DC87C007F081226937BEB7A018F
:1021E3007D2C7C017F091226937BA67A027D2C7CB1
:1021F300017F0A1226937BB27A027D2C7C017F0B2E
:102203001226937B5B7A017D2C7C017F0C12269333
:102213007B887A017D2C7C017F0D1226937BF57AD6
:10222300017D2C7C017F0E122693023A5C7B277A78
:10223300027DC87C00E4FF1226937BF77A017DC8F8
:102243007C007F011226937B0B7A027DC87C007F82
:10225300021226937BB07A017DC87C007F0312268D
:10226300937B737A027DC87C007F041226937B6B79
:102273007A017DC87C007F051226937B557A027D07
:10228300C87C007F061226937BFA7A017DC87C0006
:102293007F071226937BFE7A017DC87C007F08129C
:1022A30026937B3B7A017D907C017F091226937BE9
:1022B3009B7A027D907C017F0A1226937B657A02CA
:1022C3007D907C017F0B1226937B037A007D907CAB
:1022D300017F0C1226937B847A017D907C017F0D14
:1022E3001226937BE67A027D907C017F0E12269361
:1022F300023A5C7B277A027DC87C00E4FF122693B6
:102303007BFA7A017DC87C007F011226937B0D7ACC
:10231300027DC87C007F021226937BB17A017DC8BF
:102323007C007F031226937B737A027DC87C007F37
:10233300041226937B6C7A017DC87C007F051226EC
:10234300937B537A027DC87C007F061226937BFA27
:102353007A017DC87C007F071226937BFC7A017D7E
:10236300C87C007F081226937B357A017D907C011F
:102373007F091226937B777A027D907C017F0A1274
:1023830026937B137A047D907C017F0B1226937B2B
:102393009E7A017D907C017F0C1226937B857A01C6
:1023A3007D907C017F0D1226937BE67A027D907CE3
:1023B300017F0E122693023A5C7BF67A017D2C7C18
:1023C300017F011226937B527A027D2C7C017F02CE
:1023D3001226937B4F7A027D2C7C017F0312269376
:1023E3007B417A037D2C7C017F041226937B7B7ACD
:1023F300007D2C7C017F051226937B7A7A017D2C4C
:102403007C017F061226937BD87A017D2C7C017F89
:10241300071226937B077A027D2C7C017F08122604
:10242300937BDE7A017D907C017F091226937BB139
:102433007A017D907C017F0A1226937B637A037D68
:10244300907C017F0B1226937B747A007D907C0134
:102453007F0C1226937B557A027D907C017F0D12AF
:1024630026937B307A027D907C017F0E12269302A5
:102473003A5C121A477F2C7E01123C6B1227BC7FF9
:102483002C7E01123C6B121B127F2C7E01123C6BC3
:102493001225DA7F2C7E01123C6B1200267F2C7EE4
:1024A30001123C6B121BDD7F2C7E01123C6B12353B
:1024B300057F2C7E01123C6B1210677F2C7E01126C
:1024C3003C6B12113F7F2C7E01123C6B120A677F1B
:1024D3002C7E01123C6B12354E7F2C7E01123C6B1D
:1024E3001212177F2C7E01123C6B1235977F2C7EC4
:1024F30001123C6B121CA87F2C7E01123C6B121D37
:10250300737F2C7E01123C6B121E3E7F2C7E0112C8
:102513003C6B121F097F2C7E01123C6B121FD47F70
:102523002C7E01023C6B7B2B7A027D647C007F0155
:102533001226937B817A027D647C007F02122693AC
:102543007B157A027D647C007F031226937BEF7AEE
:10255300027D647C007F041226937BB57A007D6440
:102563007C007F051226937B897A017D647C007F42
:10257300061226937BE17A017D647C007F07122695
:10258300937B0D7A027D647C007F081226937BFD8A
:1025930012268B7B3E7A027DC87C007F0A1226932B
:1025A3007B1C7A017DC87C007F0B1226937B077A04
:1025B300037DC87C007F0C1226937B087A027DC8BA
:1025C3007C007F0D1226937BEA7A017DC87C007F15
:1025D3000E122693023A5C7B017A027DC87C007F4F
:1025E300011226937B117A027DC87C007F0212269A
:1025F300937B1F7A017DC87C007F031226937BF6B1
:102603007A017DC87C007F041226937BBD7A017D0D
:10261300C87C007F051226937BA07A027DC87C00CC
:102623007F061226937BEA7A017DC87C007F07121E
:1026330026937B0C7A027DC87C007F081226937B4D
:10264300F112268B7B7D7A037DC87C007F0A1226DC
:10265300937B547A037DC87C007F0B1226937BE126
:102663007A007DC87C007F0C1226937BCF7A007D95
:10267300C87C007F0D1226937BC47A017DC87C0041
:102683007F0E122693023A5C7DC87A017C007F0993
:102693008F158C168D178A188B19E4F51AC3E51953
:1026A30094FFE518940340067518037519FFC3E5F5
:1026B3001794FFE516940340067516037517FFE597
:1026C3001524292519FDE5182D2517FDE5162DF5EA
:1026D3001A631AFF53AFF7C285D2847FFF123EF409
:1026E3007FFF123EF4AF15123EF47F07123EF47FD4
:1026F30004123EF47F1E123EF4AF19123EF4E518A5
:10270300FF123EF4AF17123EF4E516FF123EF4AF8C
:102713001A123EF443AF08D285C2847F647E00025E
:102723003C6B7B2E7A027DC87C007F011226937B53
:10273300F37A017DC87C007F021226937BDF7A0146
:102743007DC87C007F031226937B687A017DC87C59
:10275300007F041226937B927A027DC87C007F055A
:102763001226937B4F7A027DC87C007F0612269344
:102773007BE77A017DC87C007F071226937BE87A8A
:10278300017DC87C007F081226937BF412268B7B85
:10279300337A027DC87C007F0A1226937BE47A0198
:1027A3007DC87C007F0D1226937BF47A017DC87C63
:1027B300007F0E122693023A5C7BFF7A017DC87C70
:1027C300007F011226937B317A027DC87C007F0251
:1027D3001226937B927A017DC87C007F0312269395
:1027E3007B797A027DC87C007F041226937B517A21
:1027F300017DC87C007F051226937B4F7A027DC83A
:102803007C007F061226937BEE7A017DC87C007FD5
:10281300071226937BF27A017DC87C007F0812267B
:10282300937BEC12268B7B407A027DC87C007F0A67
:102833001226937B007A027DC87C007F0D122693BB
:102843007BE47A017DC87C007F0E122693023A5CFA
:10285300787FE4F6D8FD75812902289A0232FBE4D9
:1028630093A3F8E493A34003F68001F208DFF48016
:1028730029E493A3F85407240CC8C333C4540F4466
:1028830020C8834004F456800146F6DFE4800B0140
:1028930002040810204080903E05E47E019360BC52
:1028A300A3FF543F30E509541FFEE493A360010ED8
:1028B300CF54C025E060A840B8E493A3FAE493A3FF
:1028C300F8E493A3C8C582C8CAC583CAF0A3C8C520
:1028D30082C8CAC583CADFE9DEE780BE123D79122A
:1028E3003D95123DB1123DCDE51464016071900038
:1028F30004745BF07FF47E01123C6BC2AF90000462
:10290300E0FF123F14900005E0FF123F1490000512
:10291300E024FE601514601A14601F146027240459
:10292300702F75A0FD123EA0801675A0FC123EAF5D
:10293300800E75A0FB123F1C800675A0FA123EBEE6
:10294300E4F5A0800C75A0F9123ECDE4F5A0751452
:1029530001123C8B7FC87E00123C6BD2AF80890290
:102963003DE97B0A7A027D647C007F011226937B1A
:10297300137A027D647C007F021226937B977A018F
:102983007D647C007F031226937B517A027D647CF5
:10299300007F041226937B887A017D647C007F0587
:1029A3001226937B5A7A027D647C007F061226935B
:1029B3007B017A027D647C007F071226937BF67A83
:1029C300017D647C007F081226937BF87A017DC821
:1029D3007C007F0F1226937BDF7A017DC87C007F0A
:1029E30010122693023A5C7B0A7A027D647C007F94
:1029F300011226937B137A027D647C007F021226E8
:102A0300937B977A017D647C007F031226937B512D
:102A13007A027D647C007F041226937B887A017D91
:102A2300647C007F051226937B5A7A027D647C00C6
:102A33007F061226937B017A027D647C007F071256
:102A430026937BF67A017D647C007F081226937BB4
:102A5300F87A017DC87C007F0F1226937BDF7A0111
:102A63007DC87C007F10122693023A5C7BE37A01D7
:102A73007DF47C017F091226937B527A027DF47CDC
:102A8300017F0A1226937B4D7A027DF47C017F0B32
:102A93001226937BD87A017DF47C017F0C12269356
:102AA3007BE17A017DF47C017F0D1226937BE57A2D
:102AB300017DF47C017F0E1226937BF27A017DF473
:102AC3007C017F0F1226937B047A027DF47C017FC5
:102AD30010122693023A5C7BE27A017DF47C017F3B
:102AE300091226937BCC7A037DF47C017F0A12269C
:102AF300937B617A017DF47C017F0B1226937B82A9
:102B03007A027D907C017F0C1226937B8C7A007D68
:102B13002C7C017F0D1226937BD07A017D2C7C01C6
:102B23007F0E1226937BB77A007D2C7C017F0F12D8
:102B330026937B2C7A037D2C7C017F101226930233
:102B43003A5C7B077A027D2C7C01E4FF1226937B9F
:102B53007A7A017D2C7C017F091226937BEA7A0124
:102B63007D2C7C017F0A1226937BA77A037D2C7C24
:102B7300017F0B1226937BE87A007D2C7C017F0C6E
:102B83001226937B327A027D2C7C017F0D122693D1
:102B93007BF27A017D2C7C017F0E122693023A5C34
:102BA3007BA17A027D2C7C01E4FF1226937B7B7A46
:102BB300017D2C7C017F091226937B207A027D2CD8
:102BC3007C017F0A1226937B1C7A037D2C7C017F78
:102BD3000B1226937B817A007D2C7C017F0C1226BD
:102BE300937B697A017D2C7C017F0D1226937BEF09
:102BF3007A017D2C7C017F0E122693023A5C7BFEC8
:102C03007A017D2C7C01E4FF1226937BC57A017D3A
:102C13002C7C017F091226937B437A027D2C7C0155
:102C23007F0A1226937B447A037D2C7C017F0B124F
:102C330026937BD27A007D2C7C017F0C1226937B1A
:102C4300ED7A017D2C7C017F0D1226937BED7A01B9
:102C53007D2C7C017F0E122693023A5C7BA17A02C3
:102C63007DF47C01E4FF1226937B107A027DF47CD1
:102C7300017F091226937B577A037DF47C017F0A37
:102C83001226937B437A017DF47C017F0B122693FA
:102C93007B547A007DF47C017F0C1226937BEE7AC1
:102CA300017DF47C017F0D1226937BB67A027DF4BD
:102CB3007C017F0E122693023A5C7B9B7A017DF4A2
:102CC3007C01E4FF1226937B157A017DF47C017F5E
:102CD300091226937B6C7A027DF47C017F0A12260B
:102CE300937BC87A037DF47C017F0B1226937BAA26
:102CF3007A027DF47C017F0C1226937BB27A007DED
:102D0300F47C017F0D1226937BE47A017DF47C0130
:102D13007F0E122693023A5C7B157A027D2C7C018E
:102D2300E4FF1226937BE37A017D2C7C017F091259
:102D330026937B477A027D2C7C017F0A1226937BA4
:102D43002A7A027D2C7C017F0B1226937BDE7A018B
:102D53007D2C7C017F0C1226937BF47A017D2C7CE5
:102D6300017F0D1226937BE47A017D2C7C017F0E7B
:102D7300122693023A5C7B257A017D907C01E4FF65
:102D83001226937B167A017D907C017F091226938C
:102D93007B3C7A027D907C017F0A1226937BD47A56
:102DA300037D907C017F0B1226937BA87A007D9094
:102DB3007C017F0C1226937B0D7A017D907C017F31
:102DC3000D1226937BE47A017D907C017F0E1226FF
:102DD30093023A5C7B827A017DC87C007F051226D0
:102DE300937B557A017DC87C007F061226937BF086
:102DF3007A027DC87C007F071226937B0A7A027DC4
:102E0300C87C007F081226937BE412268B7B547ABE
:102E1300027DC87C007F0A1226937BC67A007DC898
:102E23007C007F0B122693023A5C7B6A7A017DC891
:102E33007C00E4FF1226937B1612268B7B4D7A02CD
:102E43007DC87C007F0A1226937B987A037DC87C19
:102E5300007F0B1226937BC67A007DC87C007F0C13
:102E63001226937B667A017DC87C007F0D12269320
:102E73007BE47A017DC87C007F0E122693023A5CC4
:102E83007BAC7A027DC87C00E4FF1226937BF212AE
:102E9300268B7B2F7A037DC87C007F0A1226937BC7
:102EA300DB7A027DC87C007F0B1226937BB97A0004
:102EB3007DC87C007F0C1226937B527A027DC87CEE
:102EC300007F0D1226937BD67A027DC87C007F0E8D
:102ED300122693023A5C7BBD7A027DC87C00E4FF34
:102EE3001226937B4A12268B7BBF7A027DC87C0015
:102EF3007F0A1226937B3B7A027DC87C007F0B12EC
:102F030026937B557A007DC87C007F0C1226937B29
:102F13007D7A017DC87C007F0D1226937BAA7A02FD
:102F23007DC87C007F0E122693023A5C7BC97A002F
:102F33007D907C017F091226937B547A027D907CDD
:102F4300017F0A1226937BFF7A037D907C017F0B1E
:102F53001226937BF27A017D907C017F0C122693DB
:102F63007BEE7A017D907C017F0D1226937BE77ABD
:102F7300017D907C017F0E122693023A5C7BE87AF6
:102F8300017DF47C017F091226937BD77A027DF4BD
:102F93007C017F0A1226937B407A037DF47C017FB8
:102FA3000B1226937BB97A007DF47C017F0C1226E9
:102FB300937B637A017DF47C017F0D1226937BFD65
:102FC3007A017DF47C017F0E122693023A5C7BE842
:102FD3007A017DF47C017F091226937BD77A027DE7
:102FE300F47C017F0A1226937B407A037DF47C01F3
:102FF3007F0B1226937BB57A007DF47C017F0C1244
:1030030026937B107A027DF47C017F0D1226937B3D
:10301300EF7A027DF47C017F0E122693023A5C7BE9
:10302300357A017DF47C017F091226937BE77A01CF
:103033007DF47C017F0A1226937B3E7A037DF47C28
:10304300017F0B1226937BC27A007DF47C017F0CF7
:103053001226937B697A017DF47C017F0D122693FE
:103063007BD67A017DF47C017F0E122693023A5CB3
:103073007BE57A017DF47C017F091226937BC17A7B
:10308300017DF47C017F0A1226937B607A037DF431
:103093007C017F0B1226937BD67A007DF47C017F23
:1030A3000C1226937B147A017DF47C017F0D12268A
:1030B300937BEC7A017DF47C017F0E122693023A16
:1030C3005C7BE77A017D907C017F091226937B0963
:1030D3007A037D907C017F0A1226937B607A037DBD
:1030E300907C017F0B1226937BD67A007D907C0126
:1030F3007F0C1226937B887A027D907C017F0D12D0
:1031030026937BEC7A017D907C017F0E122693023D
:103113003A5C7B737A017D587C027F091226937B8C
:10312300BC7A027D587C027F0A1226937B307A0296
:103133007D587C027F0B1226937BD77A017D587CC6
:10314300027F0C1226937B607A017D587C027F0DEF
:103153001226937B817A027D587C027F0E1226937E
:10316300023A5C7BF57A007D587C027F0912269334
:103173007B577A037D587C027F0A1226937B2A7A37
:10318300027D587C027F0B1226937BDE7A017D58E9
:103193007C027F0C1226937BD27A007D587C027FBF
:1031A3000D1226937BDE7A027D587C027F0E122657
:1031B30093023A5C7BE27A017DF47C017F0912265B
:1031C300937B837A037DF47C017F0A1226937B63CE
:1031D3007A037DF47C017F0B1226937B707A007D4A
:1031E300F47C017F0C1226937BB17A007DF47C0181
:1031F3007F0D1226937BD47A017DF47C017F0E121E
:103203002693023A5C7BE57A017DF47C017F091207
:1032130026937B617A027DF47C017F0A1226937BDD
:10322300567A037DF47C017F0B1226937BAB7A00E5
:103233007DF47C017F0C1226937B817A027D587C7E
:10324300027F0D1226937BB47A027DF47C017F0EFC
:10325300122693023A5C7BEB7A017D907C017F0915
:103263001226937B557A027D907C017F0A12269366
:103273007B1C7A037D907C017F0B1226937B2A7A39
:10328300027D907C017F0C1226937BBB7A017D909B
:103293007C017F0D1226937BE27A017D907C017F76
:1032A3000E122693023A5C7B477A017D907C017F64
:1032B300091226937BCD7A017D907C017F0A122629
:1032C300937B2E7A037D907C017F0B1226937BCF19
:1032D3007A007D907C017F0C1226937B4B7A027DD2
:1032E300907C017F0D1226937BAA7A027D907C014C
:1032F3007F0E122693023A5C123E201237491200C7
:10330300031237C3123E69E4F5A0120607E514144D
:10331300600F146017240270217BFF7A3F792280AB
:10332300067BFF7A3F7929123C0280117BFF7A3FAB
:103333007930123C02123E908003E4F5147FC87E7C
:1033430000123C6B80C77B9C7A027DC812268F7B60
:10335300E87A027DC87C007F0A1226937BB37A0346
:103363007DC87C007F0B1226937B067A007DC87C88
:10337300007F0C1226937B397A027DC87C007F0D77
:103383001226937BE57A017DC87C007F0E1226937B
:10339300023A5CC0E0C083C082C0D053AFEFE58483
:1033A30030E0215384FE74152523F582E43400F5BF
:1033B30083E585F00523C3E523940174809480405D
:1033C30003752300E58430E1035384FD900015E089
:1033D300F51443AF10D0D0D082D083D0E0327BDE5F
:1033E30012268B7B2B7A027DC87C007F0A122693E0
:1033F3007BA47A007DC87C007F0B1226937BFF7A27
:10340300037D907C017F0C1226937BF37A017D90E0
:103413007C017F0D1226937BEE7A017D907C017FE8
:103423000E122693023A5C7BE312268B7B527A02BE
:103433007DC87C007F0A1226937B0C7A017DC87CB1
:10344300007F0B1226937BF97A027DC87C007F0CE8
:103453001226937BEA7A017DC87C007F0D122693A6
:103463007BE97A017DC87C007F0E122693023A5CC9
:103473007BDE12268B7B3B7A027DC87C007F0A129F
:1034830026937BAC7A037DC87C007F0B1226937B4B
:103493007B7A007DC87C007F0C1226937BEF7A0138
:1034A3007DC87C007F0D1226937BFE7A017DC87C4C
:1034B300007F0E122693023A5C7B3412268B7B88A4
:1034C3007A027DC87C007F0A1226937B3B7A037DB8
:1034D300C87C007F0B1226937BD97A007DC87C00C1
:1034E3007F0C1226937B987A017DC87C007F0D1296
:1034F30026937BA37A027DC87C007F0E122693025B
:103503003A5C7BF612268B7B337A027DC87C007F84
:103513000A1226937B5D7A037DC87C007F0B1226FB
:10352300937BB27A007DC87C007F0C1226937BFDCF
:103533007A017DC87C007F0D1226937BE87A017D9A
:10354300C87C007F0E122693023A5C7BF712268B0F
:103553007B617A037DC87C007F0A1226937BFC7A09
:10356300007DC87C007F0B1226937B157A037DC8F0
:103573007C007F0C1226937BEE7A007DC87C007F53
:103583000D1226937BE07A017DC87C007F0E122604
:1035930093023A5C7BF912268B7B4A7A037DC87CC3
:1035A300007F0A1226937BF07A007DC87C007F0B94
:1035B3001226937B267A037DC87C007F0C12269308
:1035C3007BD17A007DC87C007F0D1226937BE07A45
:1035D300017DC87C007F0E122693023A5C7BEF12BA
:1035E300268B7B817A027DC87C007F0A1226937B1F
:1035F300FF7A037DC87C007F0B1226937B0F7A0032
:103603007DC87C007F0C1226937BAB7A017DC87C3E
:10361300007F0D1226937BE47A017DC87C007F0E28
:10362300122693023A5C7B3912268B7BDF7A017D6B
:10363300907C017F0A1226937B347A037DC87C0039
:103643007F0B1226937BEA7A007D907C017F0C121C
:1036530026937B387A027D907C017F0D1226937B23
:10366300E57A027D907C017F0E122693023A5C7B01
:10367300F112268B7BCE7A027DC87C007F0A12264C
:10368300937B467A027DC87C007F0B1226937B686E
:103693007A007DC87C007F0C1226937BE17A017D42
:1036A300C87C007F0D1226937BE07A017DC87C00E5
:1036B3007F0E122693023A5C7BF312268B7B427AAF
:1036C300037DC87C007F0A1226937B977A017DC80D
:1036D3007C007F0B1226937BA47A007DC87C007F3D
:1036E3000C1226937BD97A017DC87C007F0D1226AC
:1036F300937B327A037DC87C007F0E122693023AB5
:103703005CC0E0C083C082C0D053AFF7E5AC30E00B
:103713002153ACFE74072522F582E43400F583E5DA
:10372300ADF00522D3E522940E7480948040037596
:103733002200E5AC30E10353ACFD43AF08D0D0D059
:1037430082D083D0E03243BA0153873F7598504308
:103753008E01759A5043AC5053AC7043841053841C
:1037630030438440438E0475D7E875D6FF438E10EB
:1037730043D12275D57075D4FF75D37075D2FF43CD
:10378300D18822C0E0C083C082C0D0C2AC309820B0
:10379300C29874002520F582E43400F583E599F09E
:1037A3000520C3E5209404748094804003752000B1
:1037B300309902C299D2ACD0D0D082D083D0E0323B
:1037C300C2B47B007A0079087519057F2A123A2A58
:1037D3007D017F21123E7D7D017F22123E7D7D375B
:1037E3007F25123E7D7D017F31123E7D7D267F2622
:1037F300123E7D7D0F7F20123E7DD2B422C0E0C0F9
:10380300F0C083C082C0D075D000C000C001C00228
:10381300C003C004C005C006C007123E3AD007D09B
:1038230006D005D004D003D002D001D000D0D0D030
:1038330082D083D0F0D0E032BB010689828A83E054
:10384300225002E722BBFE02E32289828A83E493A9
:1038530022F8BB010DE58229F582E5833AF583E879
:10386300F0225006E92582C8F622BBFE05E925822F
:10387300C8F2227B387A027D2C7C017F05122693C5
:103883007BE37A007D2C7C017F061226937B727A80
:10389300027D2C7C017F071226937BEC7A017D2C21
:1038A3007C017F08122693023A5C7BA47A007D2C6C
:1038B3007C017F051226937BE37A007D2C7C017FBC
:1038C300061226937B727A027D2C7C017F071226D7
:1038D300937BEC7A017D2C7C017F08122693023ABC
:1038E3005C7BB57A017D2C7C017F051226937B1BC3
:1038F3007A027D2C7C017F061226937B327A027D2D
:103903002C7C017F071226937BF37A017D2C7C01AB
:103913007F08122693023A5C7B097A027D2C7C0194
:103923007F011226937B1D7A027D2C7C017F02127C
:1039330026937B227A037D2C7C017F031226937BC3
:10394300A27A027D2C7C017F04122693023A5C7BCF
:10395300047A027D5E7C017F011226937B1D7A022D
:103963007D5E7C017F021226937B4D7A027D5E7C15
:10397300017F031226937BC37A027D5E7C017F0461
:10398300122693023A5C7B037A027D2C7C017F0131
:103993001226937BC47A017D2C7C017F021226932D
:1039A3007BE97A017D2C7C017F031226937B577A76
:1039B300027D2C7C017F04122693023A5C7BFD7A04
:1039C300017DC87C007F011226937BFD7A017DC8AF
:1039D3007C007F081226937BE27A017DC87C007FFE
:1039E3000F1226937BDF7A017DC87C007F1012269D
:1039F30093023A5C8B1C8A1D891EC292120016AE7A
:103A030007E4FDEDC3951F50177FFF120016AB1C93
:103A1300AA1DA91E8D82758300EF1238540D80E311
:103A2300D292D292AF06228B168A178918C29212AB
:103A33000016AE07E4FDEDC395195018AB16051833
:103A4300E518AA177002051714F912383BFF120084
:103A5300160D80E2D292AF062253AFF7C285D2840D
:103A63007FFF123EF47FFF123EF47FFE123EF47F8F
:103A730002123EF47F05123EF47FFA123EF443AF86
:103A830008D285C284228B248A25892653AFF7ABBB
:103A930024AA25A92612383B60130526E5267002C1
:103AA300052514F912383BFF123EF480E243AF08B8
:103AB300228B278A28892953AFEFAB27AA28A92964
:103AC30012383B60130529E5297002052814F91201
:103AD300383BFF123EFF80E243AF10227BC97A00DE
:103AE3007D207C037F091226937B577A027D207CFD
:103AF300037F0A1226937BFF7A037D207C037F0BCF
:103B0300122693023A5C7B7C7A037D907C017F0CC6
:103B13001226937BF37A017D907C017F0D1226930D
:103B23007BEE7A017D907C017F0E122693023A5C34
:103B33007BDE7A017D907C017F091226937B2B7AB1
:103B4300027D907C017F0A1226937B127A007D907E
:103B53007C017F0B122693023A5C7B2A7A027DF466
:103B63007C017F0C1226937BB17A007DF47C017F6C
:103B73000D1226937BD47A017DF47C017F0E1226ED
:103B830093023A5C7BAB7A007DF47C017F0C1226B6
:103B9300937B1A7A027D587C027F0D1226937BB4A5
:103BA3007A027DF47C017F0E122693023A5C7B0637
:103BB3007A017D907C017F0C1226937B677A027DCC
:103BC300907C017F0D1226937BBF7A027D907C014E
:103BD3007F0E122693023A5C7F07123EDCAC07ADE0
:103BE300047F27123E7DEC30E612751F017F6112C0
:103BF30039F77DFF7FE2123E7D7F40227F00228BDB
:103C0300158A168917AB15AA16A91712383B601324
:103C13000517E5177002051614F912383BFF123F1A
:103C23001480E2227BAD12268B7BE97A017DC87C6E
:103C3300007F0A1226937BB27A037DC87C007F0B38
:103C4300122693023A5C7BEF12268B7B477A027D26
:103C5300C87C007F0A1226937BCB7A037DC87C0045
:103C63007F0B122693023A5CE4FDFCC3ED9FEC9EAE
:103C73005015E4FBFA0BBB00010ABA04F8BB4CF580
:103C83000DBD00010C80E422E4FFEFC394037480B4
:103C93009480500F74042FF582E43400F583E4F02C
:103CA3000F80E7E4F52122E4FFEFC3940E748094C0
:103CB30080500F74072FF582E43400F583E4F00F8E
:103CC30080E7E4F52222E4FFEFC39401748094803B
:103CD300500F74152FF582E43400F583E4F00F8060
:103CE300E7E4F523227BCE7A027DC87C007F0A12AB
:103CF30026937B5B7A027DC87C007F0D122693029C
:103D03003A5C7B1F7A027D2C7C017F0B1226937B0E
:103D1300067A017DC87C007F0C122693023A5C7BF5
:103D2300CB7A017D907C017F0D1226937BBE7A02B4
:103D33007D907C017F0E122693023A5C7B227A01EE
:103D43007D907C017F091226937BE77A017D907C2D
:103D5300017F0A122693023A5C7B447A027D907CAF
:103D6300017F0A1226937BBB7A017D907C017F0D34
:103D7300122693023A5C53AFFE7FA0123EE97FA066
:103D8300123EE97FA0123EE943AF017FE87E0302C2
:103D93003C6B53AFFE7FA1123EE9E4FF123EE9E420
:103DA300FF123EE943AF017FE87E03023C6B53AF52
:103DB300FE7FA2123EE9E4FF123EE9E4FF123EE970
:103DC30043AF017FE87E03023C6B53AFFE7FAB1230
:103DD3003EE97FAB123EE9E4FF123EE943AF017FC8
:103DE300E87E03023C6B53AFFE7FAC123EE97FAC2F
:103DF300123EE9E4FF123EE943AF017FE87E03028E
:103E03003C6B012000012100012200012300050D6C
:103E1300E1E2E3E4E50508E1E2E3E4E500E4F59348
:103E2300F594F591F592F595F596F5B1F5B2F5B3EF
:103E3300F5B4F5C9F5CA227B007A007912123BDB8F
:103E4300EF6440700B851214F5127FC8FE123C6BB1
:103E5300227BEF12268B7B7A7A017DC87C007F0D53
:103E6300122693023A5CD2AC43AF0143AF0843AF8F
:103E730010C28BD2AAD28AD2AF22AE05C29212004E
:103E830016AD07AF06120016D292AF0522120096A6
:103E93001224751203791206077514012200007F9C
:103EA3006A7E0F7D83DDFEDEFCDFFA2200007FD316
:103EB3007E1E7D0BDDFEDEFCDFFA2200007FFD7E31
:103EC300237DDCDDFEDEFCDFFA2200007F947E151D
:103ED3007D53DDFEDEFCDFFA22C2921200167FFF65
:103EE300120016D292228F9BE59A30E1FB539AFD82
:103EF300228FADE5AC30E1FB53ACFD228F85E58429
:103F030030E1FB5384FD22E4F5CF75CDC075CED0EF
:103F1300228F993099FDC29922123EAF023EAF30F3
:103F23007830302020003078303120200030783055
:043F33003220200018
:00000001FF
