:100000000229B07F027E00123E88C285C2B4D2921D
:1000100002411A0239F38FCFE5CD30E7FB75CDC031
:10002000AFCF220239797BC37A007DC87C007F0F75
:100030001227627B227A037DC87C007F1012276220
:10004000023C4F020046C0E0C083C082C0D053AF24
:10005000FEE59A30E021539AFE74042521F582E4EE
:100060003400F583E59BF00521D3E52194037480EA
:1000700094804003752100E59A30E103539AFD43D3
:0E008000AF01D0D0D082D083D0E0320238B2AF
:100093000238F712060E7F2C7E01123E881231764B
:1000A3007FF47E01123E88123CD212060E7FF47E4C
:1000B30001123E881217F27FF47E01123E88121657
:1000C300547FF47E01123E881206EE7FF47E011205
:1000D3003E881217237FF47E01123E887FF47E014F
:1000E300123E881231C77FF47E01123E8812321805
:1000F3007FF47E01123E881232697FF47E01123E44
:10010300881232187FF47E01123E881232697FF41E
:100113007E01123E88122CB67FF47E01123E887F48
:10012300F47E01123E8812291E7FF47E01123E885E
:100133001207CE7FF47E01123E88122D8C7FF47E4F
:1001430001123E88122DEA7FF47E01123E887FF46D
:100153007E01123E88122E487FFA7E00123E8812DC
:100163002EA67FF47E01123E88122E487FF47E0174
:10017300123E88122F047FF47E01123E88122E480D
:100183007FF47E01123E881232BA7FF47E01123E62
:100193008812330B7FF47E01123E887FFA7E0012B1
:1001A3003E88122E48122F627FF47E01123E88127F
:1001B300335C7FF47E01123E88122F627FF47E014E
:1001C300123E881233AD7FF47E01123E88122F62F5
:1001D3007F647E00123E88120D0E7F647E00123E05
:1001E300881223C77FF47E01123E881214AA7FF47B
:1001F3007E01123E8812358F7FC87E00123E881220
:100203003CFC7FC87E00123E88123D267FC87E00DC
:10021300123E8812358F7FC87E00123E88123CFC46
:100223007FC87E00123E881208AE7FC87E00123E51
:1002330088123A697FC87E00123E88123AA07FC8AE
:100243007E00123E88123AD77FC87E00123E881283
:100253003B0E7FC87E00123E88123B457F647E00C2
:10026300123E88123B7C7F647E00123E881235D892
:100273007FC87E00123E8812301E7FC87E00123E69
:10028300881218BF7F327E00123E88120DEA7FC8A3
:100293007E00123E8812098E7FC87E00123E8812AD
:1002A3000A6E7FF47E01123E881225F67FF47E01EA
:1002B300123E8812198A7FF47E01123E88122D2184
:1002C3007FF47E01123E88123D507FF47E01123E80
:1002D300881233FE7FF47E01123E881224897FF454
:1002E3007E01123E8812344F123D7A12344F123D72
:1002F3007A12344F123D7A7F2C7E01123E881230DF
:10030300747F2C7E01123E88122FC07F2C7E011237
:100313003E88120EC27F2C7E01123E881236217F48
:100323002C7E01123E881227F47F2C7E01123E8818
:10033300123BB37F2C7E01123E881220AD7F2C7EB0
:1003430001123E881228897F2C7E01123E881236C4
:100353006A7F2C7E01123E881228897F2C7E01122F
:100363003E8812366A7F2C7E01123E881228897FCE
:100373002C7E01023E881212227F2C7E01123E88BF
:100383001235427F2C7E01123E88123E447F2C7E22
:1003930001123E881212FA7F2C7E01123E8812123D
:1003A300FA7F2C7E01123E8812378E7F2C7E01123B
:1003B3003E887F2C7E01123E88123F237F2C7E01D4
:1003C300123E881240747F2C7E01123E881230CA7E
:1003D3007F2C7E01123E887FF47E01123E887FF4DB
:1003E3007E01123E8812060E7FF47E01123E8812B1
:1003F30031767FF47E01123E88123CD212060E7FC4
:10040300F47E01123E881217F27FF47E01123E88B9
:100413001216547FF47E01123E881213D27F2C7E73
:1004230001123E88123E667FF47E01123E887FF4FD
:100433007E01123E887FF47E01123E887FF47E01A6
:10044300123E88123F407FF47E01123E887FF47E85
:1004530001123E887FF47E01123E88123DA47F2C58
:100463007E01123E88123F5D7F2C7E01123E881270
:100473003DA47F2C7E01123E88123F5D7F2C7E01BE
:10048300123E88123DA47F2C7E01123E88123F5DEE
:100493007F2C7E01123E88120C2E7F2C7E01123E91
:1004A30088122B497F2C7E01123E881217237F2C42
:1004B3007E01123E887F2C7E01123E881231C77F57
:1004C300F47E01123E881232187FF47E01123E88B8
:1004D3001232697FF47E01123E881232187FF47E55
:1004E30001123E881232697FF47E01123E88122C7B
:1004F300B67FF47E01123E887FF47E01123E88129D
:100503002AC47FF47E01123E887F2C7E01123E882E
:100513001221767FF47E01123E881237D77FF47E54
:1005230001123E881223027FF47E01123E881222BA
:100533003C7FF47E01123E881221767FF47E011205
:100543003E881215817FF47E01123E881234A07F0B
:10055300F47E01123E88123F7A7F2C7E01123E8880
:100563001238207F2C7E01123E881234F17F2C7EBC
:1005730001123E88123F977F2C7E01123E8812346F
:10058300F17F2C7E01123E88123F977F2C7E011251
:100593003E881231207F2C7E01123E881215817F06
:1005A300F47E01123E881234A07FF47E01123E884D
:1005B300123F7A7F2C7E01123E881238207F2C7ED8
:1005C30001123E881238697F2C7E01123E88121F69
:1005D300E27F2C7E01123E88121F177FF47E0112E8
:1005E3003E887FF47E01123E887FF47E01123E88AE
:1005F3007FF47E01123E887FF47E01123E88123121
:10060300767FF47E01123E88023CD27B117A027D12
:10061300907C01E4FF1227627BFD7A017D907C01CF
:100623007F011227627BFA7A017D907C017F02129F
:1006330027627B9C7A017D907C017F031227627B7A
:100643005F7A027D907C017F041227627B737A01BB
:100653007D907C017F051227627B597A027D907C15
:10066300017F061227627402FBFA7D907C017F07EB
:100673001227627BF47A017D907C017F0812276246
:100683007BE47A017D907C017F091227627B5F7A8C
:10069300027D907C017F0A1227627B3D7A027D9066
:1006A3007C017F0B1227627BCF7A017D907C017FD7
:1006B3000C1227627BE97A017D907C017F0D122762
:1006C300627BEA7A017D907C017F0E1227627BFCBC
:1006D3007A017D907C017F0F1227627BF17A017D85
:1006E300907C017F10122762023C4F7B117A027DBE
:1006F300647C00E4FF1227627BFD7A017D647C0049
:100703007F011227627BFA7A017D647C007F0212EB
:1007130027627B9C7A017D647C007F031227627BC6
:100723005F7A027D647C007F041227627B737A0107
:100733007D647C007F051227627B597A027D647C8D
:10074300007F061227627402FBFA7D647C007F0738
:100753001227627BF47A017D647C007F0812276292
:100763007BE47A017D907C017F091227627B5F7AAB
:10077300027D907C017F0A1227627B3D7A027D9085
:100783007C017F0B1227627BCF7A017D907C017FF6
:100793000C1227627BE97A017D907C017F0D122781
:1007A300627BEA7A017D907C017F0E1227627BECEB
:1007B3007A017D647C007F0F1227627BDE7A017DE4
:1007C300647C007F10122762023C4F7B797A017DA3
:1007D3002C7C01E4FF1227627BFD7A017D647C009F
:1007E3007F011227627BFA7A017D647C007F02120B
:1007F30027627B9C7A017D647C007F031227627BE6
:10080300537A027DC87C007F041227627B7C7A01C5
:100813007DC87C007F051227627B597A027D647C48
:10082300007F061227627402FBFA7D647C007F0757
:100833001227627BF47A017D647C007F08122762B1
:100843007B7A7A017D2C7C017F091227627B977A60
:10085300027D2C7C017F0A1227627BCB7A037D2CDD
:100863007C017F0B1227627B377A017D2C7C017F11
:100873000C1227627BAD7A017D2C7C017F0D122740
:10088300627BE77A017D2C7C017F0E1227627BEA73
:100893007A017D2C7C017F0F1227627BF47A017D24
:1008A3002C7C017F10122762023C4F7BFE7A017D74
:1008B3002C7C01E4FF1227627B097A027D2C7C01E8
:1008C3007F011227627BCE7A017D2C7C017F02128D
:1008D30027627BFE7A017D2C7C017F031227627BDA
:1008E3004F7A017D2C7C017F041227627B8A7A0276
:1008F3007D2C7C017F051227627BEE7A017D2C7CA7
:10090300017F061227627B347A027D2C7C017F07EC
:100913001227627BFA7A017D2C7C017F0812276201
:100923007BF87A017D2C7C017F091227627B757A23
:10093300027D2C7C017F0A1227627BCD7A007D2CFD
:100943007C017F0B1227627B2A7A037D2C7C017F3B
:100953000C1227627BB87A017D2C7C017F0D122754
:10096300627BE37A017D2C7C017F0E1227627BFE82
:100973007A017D2C7C017F0F1227627BF37A017D44
:100983002C7C017F10122762023C4F7BF87A017D99
:100993002C7C01E4FF1227627402FBFA7D2C7C019C
:1009A3007F011227627BD77A017D2C7C017F0212A3
:1009B30027627B017A027D2C7C017F031227627BF5
:1009C3004D7A027D2C7C017F041227627BAA7A0177
:1009D3007D2C7C017F051227627B007A027D2C7CB3
:1009E300017F061227627B3A7A027D2C7C017F0706
:1009F3001227627BF37A017D2C7C017F0812276228
:100A03007BF57A017D2C7C017F091227627B507A6A
:100A1300037D2C7C017F0A1227627BE27A007D2C06
:100A23007C017F0B1227627B367A037D2C7C017F4E
:100A33000C1227627BEE7A007D2C7C017F0D12273E
:100A4300627BC77A017D2C7C017F0E1227627BFAC1
:100A53007A017D2C7C017F0F1227627BF27A017D64
:100A63002C7C017F10122762023C4F7BF87A017DB8
:100A73002C7C01E4FF1227627B037A027D2C7C012C
:100A83007F011227627BE77A017D2C7C017F0212B2
:100A930027627B147A027D2C7C017F031227627B01
:100AA300CB7A027D2C7C017F041227627B0A7A01B8
:100AB3007D2C7C017F051227627BD37A017D2C7C00
:100AC300017F061227627B207A027D2C7C017F073F
:100AD3001227627BDF7A017D2C7C017F081227625B
:100AE3007BF57A017D2C7C017F091227627B507A8A
:100AF300037D2C7C017F0A1227627BE27A007D2C26
:100B03007C017F0B1227627B367A037D2C7C017F6D
:100B13000C1227627BEE7A007D2C7C017F0D12275D
:100B2300627BC77A017D2C7C017F0E1227627BD208
:100B33007A007D2C7C017F0F1227627B0B7A037D69
:100B43005E7C017F10122762023C4F7B507A027D4C
:100B5300907C01E4FF1227627BFE7A017D907C0189
:100B63007F011227627B1C7A027D907C017F021237
:100B730027627BFF7A017D907C017F031227627BD2
:100B8300D77A027D907C017F041227627BC87A00AA
:100B93007D907C017F051227627BCD7A017D907C5D
:100BA300017F061227627BDA7A017D907C017F0741
:100BB3001227627B077A027D907C017F08122762ED
:100BC3007BFD7A017D907C017F091227627B5A7A33
:100BD300037D907C017F0A1227627B817A037D90DB
:100BE3007C017F0B1227627BAE7A007D907C017FB4
:100BF3000C1227627BD17A007D907C017F0D122736
:100C0300627BE17A017D907C017F0E1227627BC3B8
:100C13007A007D907C017F0F1227627B267A037D09
:100C2300907C017F10122762023C4F7B267A027D63
:100C3300C87C00E4FF1227627B037A027DC87C0034
:100C43007F011227627BF47A017DC87C007F021248
:100C530027627B897A017DC87C007F031227627B30
:100C6300357A027DC87C007F041227627B9D7A015E
:100C73007DC87C007F051227627B5A7A027DC87C7F
:100C8300007F061227627B1D7A027DC87C007F07E6
:100C93001227627BFC7A017DC87C007F08122762E1
:100CA3007BD47A017D907C017F091227627B4D7A88
:100CB300027D907C017F0A1227627BBF7A037D90BD
:100CC3007C017F0B1227627B5A7A007D907C017F27
:100CD3000C1227627402FBFA7D907C017F0D1227B0
:100CE300627BED7A017D907C017F0E1227627BF49B
:100CF3007A017DC87C007F0F1227627BE47A017D35
:100D0300C87C007F10122762023C4F7B007A027D71
:100D1300647C00E4FF1227627BE17A017D647C003E
:100D23007F011227627B077A027D647C007F0212B7
:100D330027627B937A017D647C007F031227627BA9
:100D43004F7A027D647C007F041227627B907A01D4
:100D53007D647C007F051227627B657A027D647C5B
:100D6300007F061227627B0D7A027D647C007F0779
:100D73001227627B047A027D647C007F081227625B
:100D83007BE57A017D6412275E7B6E7A027D647C4B
:100D9300007F0A1227627B2F7A027D647C007F0B1F
:100DA3001227627BDD7A017D647C007F0C1227624F
:100DB3007BD57A017D647C007F0D1227627BE87A04
:100DC300017D647C007F0E1227627BE37A017D64E0
:100DD3007C007F0F1227627BED7A017D647C007FAC
:100DE30010122762023C4F7B157A027DC87C00E417
:100DF300FF1227627B067A027DC87C007F011227DF
:100E0300627BD57A017DC87C007F021227627BFC5E
:100E13007A017DC87C007F031227627B8D7A027D75
:100E2300C87C007F041227627B687A017DC87C003E
:100E33007F051227627B2F7A027DC87C007F061212
:100E430027627B407A027DC87C007F071227627B82
:100E5300F87A017DC87C007F081227627BEF122796
:100E63005A7B287A027DC87C007F0A1227627B1E88
:100E73007A017DC87C007F0B1227627B0E7A037D8B
:100E8300C87C007F0C1227627BF77A017DC87C0047
:100E93007F0D1227627BDF7A017DC87C007F0E12F3
:100EA30027627BFD7A017DC87C007F0F1227627B5E
:100EB300EE7A017DC87C007F10122762023C4F7BD3
:100EC300F17A017DC87C00E4FF1227627B007A027D
:100ED3007DC87C007F011227627B677A027DC87C14
:100EE300007F021227627B937A017DC87C007F0317
:100EF3001227627B737A027DC87C007F041227620B
:100F03007B377A017DC87C007F051227627B0D7ACF
:100F1300027DC87C007F061227627BBD7A017DC8F3
:100F23007C007F071227627B0D7A027DC87C007FDD
:100F3300081227627BDA12275A7B4A7A027DC87C21
:100F4300007F0A1227627B587A037DC87C007F0BDF
:100F53001227627BBA7A007DC87C007F0C1227625D
:100F63007BDE7A017DC87C007F0D1227627BFA7AD3
:100F7300017DC87C007F0E1227627BC17A007DC889
:100F83007C007F0F1227627B297A037DC87C007F58
:100F930010122762023C4F7BEC7A017DC87C00E48F
:100FA300FF1227627BFD7A017DC87C007F01122737
:100FB300627B157A027DC87C007F021227627B2444
:100FC3007A017DC87C007F031227627BF17A017D61
:100FD300C87C007F041227627BD37A007DC87C0023
:100FE3007F051227627BCB7A017DC87C007F0612C6
:100FF30027627BDA7A017DC87C007F071227627B38
:10100300087A027DC87C007F081227627BFE1227C4
:101013005A7B397A027DC87C007F0A1227627BD211
:101023007A027DC87C007F0B1227627BAD7A007D3C
:10103300C87C007F0C1227627BB87A007DC87C00D5
:101043007F0D1227627BE27A017DC87C007F0E123E
:1010530027627BC37A007DC87C007F0F1227627BE7
:10106300267A037DC87C007F10122762023C4F7BE7
:10107300957A027DC87C00E4FF1227627BFD7A012A
:101083007DC87C007F011227627B157A027DC87CB4
:10109300007F021227627B247A017DC87C007F03D4
:1010A3001227627BF17A017DC87C007F04122762DC
:1010B3007BD37A007DC87C007F051227627BCB7AC5
:1010C300017DC87C007F061227627BDA7A017DC826
:1010D3007C007F071227627B087A027DC87C007F31
:1010E300081227627BFD12275A7BAE7A017DC87CEA
:1010F300007F0A1227627B857A037DC87C007F0B01
:101103001227627BAA7A007DC87C007F0C122762BB
:101113007BBE7A007DC87C007F0D1227627B1C7A20
:10112300037DC87C007F0E1227627BC37A007DC8D3
:101133007C007F0F1227627B267A037DC87C007FA9
:1011430010122762023C4F7B4E7A027DC87C00E47A
:10115300FF1227627BFF7A017DC87C007F01122783
:10116300627BCC7A017DC87C007F021227627B8E72
:101173007A017DC87C007F031227627B677A027D38
:10118300C87C007F041227627B787A017DC87C00CB
:101193007F051227627BAA7A027DC87C007F061234
:1011A30027627BD87A017DC87C007F071227627B88
:1011B300037A027DC87C007F081227627BF712271F
:1011C3005A7B417A027DC87C007F0A1227627B6BBF
:1011D3007A017DC87C007F0B1227627BA87A027D8F
:1011E300C87C007F0C1227627B0E7A027DC87C00CC
:1011F3007F0D1227627BE07A017DC87C007F0E128F
:1012030027627BBA7A007DC87C007F0F1227627B3E
:101213001B7A037DC87C007F10122762023C4F7B40
:101223000D7A027DC87C00E4FF1227627402FBFA88
:101233007DC87C007F011227627BCF7A017DC87C49
:10124300007F021227627B837A017DC87C007F03C3
:101253001227627B1A7A027D907C017F0412276237
:101263007BB77A017D907C017F051227627B6C7AC4
:10127300027DC87C007F061227627B307A027DC81C
:101283007C007F071227627BFE7A017DC87C007F8A
:10129300081227627BF512275A7B407A037DC87CAC
:1012A300007F0A1227627B397A037DC87C007F0B9B
:1012B3001227627BF97A007DC87C007F0C122762BB
:1012C3007BE77A007DC87C007F0D1227627BCC7A96
:1012D300017DC87C007F0E1227627BF57A017DC8F1
:1012E3007C007F0F1227627BE77A017DC87C007F39
:1012F30010122762023C4F7B287A027DC87C00E4EF
:10130300FF1227627402FBFA7DC87C007F0112275B
:10131300627B177A027DC87C007F021227627B23DF
:101323007A017DC87C007F031227627BEA7A017D04
:10133300C87C007F041227627BC87A017DC87C00C9
:101343007F051227627B9A7A027DC87C007F061292
:1013530027627B117A027DC87C007F071227627B9C
:10136300047A027DC87C007F081227627BE1122782
:101373005A7B637A027DC87C007F0A1227627B4016
:101383007A027DC87C007F0B1227627BD67A017DAF
:10139300C87C007F0C1227627BED7A017DC87C003C
:1013A3007F0D1227627BE87A017DC87C007F0E12D5
:1013B30027627BF57A017DC87C007F0F1227627B51
:1013C300E77A017DC87C007F10122762023C4F7BC5
:1013D300287A027DC87C00E4FF1227627B037A022D
:1013E3007DC87C007F011227627BF47A017DC87C73
:1013F300007F021227627B897A017DC87C007F030C
:101403001227627B357A027DC87C007F0412276233
:101413007B9D7A017DC87C007F051227627B5A7A07
:10142300027DC87C007F061227627B1D7A027DC87D
:101433007C007F071227627BFC7A017DC87C007FDA
:10144300081227627BD312275A7B4F7A027DC87C0E
:10145300007F0A1227627B367A027DC87C007F0BED
:101463001227627BD37A017DC87C007F0C1227622E
:101473007BE17A017DC87C007F0D1227627BEE7AC7
:10148300017DC87C007F0E1227627BE97A017DC84B
:101493007C007F0F1227627BF17A017DC87C007F7D
:1014A30010122762023C4F7B147A027DC87C00E451
:1014B300FF1227627BF47A017DC87C007F0112272B
:1014C300627B647A017DC87C007F021227627BC540
:1014D3007A017DC87C007F031227627BD97A007D65
:1014E300C87C007F041227627BF27A027DC87C00ED
:1014F3007F051227627B297A027DC87C007F061252
:1015030027627BAC7A027DC87C007F071227627B4F
:10151300FF7A017DC87C007F081227627BF51227C2
:101523005A7B647A027DC87C007F0A1227627401A9
:10153300FBFA7D2CFC7F0B1227627B167A037D2C32
:101543007C017F0C1227627BD87A017DC87C007FE7
:101553000D1227627BEA7A017DC87C007F0E122779
:10156300627BDE7A017DC87C007F0F1227627BF6E7
:101573007A017DC87C007F10122762023C4F7BF208
:101583007A017D907C017F011227627BFA7A017DCB
:10159300907C017F021227627BB57A017D907C01EA
:1015A3007F031227627B6E7A027D907C017F041297
:1015B30027627B857A017D907C017F051227627B00
:1015C300517A027D907C017F061227627B157A0295
:1015D3007DC87C007F071227627B007A027D907CA6
:1015E300017F081227627BEA7A017D907C017F09E3
:1015F3001227627B597A027D907C017F0A1227624F
:101603007BA27A017D907C017F0B1227627BA07AFB
:10161300007D907C017F0C1227627BF87A017D901C
:101623007C017F0D1227627B257A037D907C017FED
:101633000E1227627BDA7A017D907C017F0F1227DD
:10164300627BEE7A017D907C017F10122762023C5F
:101653004F7B177A027DFA7C007F011227627BFAA7
:101663007A017DFA7C007F021227627B9C7A017DDE
:10167300FA7C007F031227627B5F7A027DFA7C008B
:101683007F041227627B737A017DFA7C007F051247
:1016930027627B597A027DFA7C007F0612276274E7
:1016A30002FBFA7DFA7C007F071227627B307A0205
:1016B3007DFA7C007F081227627BE57A017DFA12AE
:1016C300275E7B5A7A027DFA7C007F0A1227627BAF
:1016D300337A027DFA7C007F0B1227627B5E7A00ED
:1016E3007DFA7C007F0C1227627B3C7A017DFA7CB9
:1016F300007F0D1227627BE47A017DFA7C007F0E66
:101703001227627BFC7A017DFA7C007F0F1227622D
:101713007BF17A017DFA7C007F10122762023C4F35
:101723007BF77A017D647C007F011227627B287A34
:10173300017D647C007F021227627B867A027D64CE
:101743007C007F031227627B177A027D647C007F13
:10175300041227627BBF7A017D647C007F05122718
:10176300627B6E7A017D647C007F061227627BDEDA
:101773007A027D647C007F071227627B0E7A027DEA
:10178300647C007F081227627BE37A017D64122761
:101793005E7B527A027D647C007F0A1227627B4D56
:1017A3007A027D647C007F0B1227627BD87A017DED
:1017B300647C007F0C1227627BE17A017D647C00EC
:1017C3007F0D1227627BE57A017D647C007F0E1218
:1017D30027627BF27A017D647C007F0F1227627B94
:1017E300047A027D647C007F10122762023C4F7BE7
:1017F300A47A017DFA7C007F011227627BFA7A01C9
:101803007DFA7C007F021227627B9C7A017DFA7C41
:10181300007F031227627B5F7A027DFA7C007F04DC
:101823001227627B737A017DFA7C007F051227629F
:101833007B597A027DFA7C007F061227627402FBD1
:10184300FA7DFA7C007F071227627BF37A017DFA27
:101853007C007F081227627BE77DFA12275C7BEA14
:101863007A027DFA7C007F0A1227627BD27A037D9B
:10187300FA7C007F0B1227627BD07A017DFA7C0011
:101883007F0C1227627BE57A017DFA7C007F0D12C3
:1018930027627BE47A017DFA7C007F0E1227627B4C
:1018A300FC7A017DFA7C007F0F1227627BF17A01BB
:1018B3007DFA7C007F10122762023C4F7B077A027D
:1018C3007DC87C007F011227627BF27A007DC87C91
:1018D300007F021227627BDD7A027DC87C007F03D2
:1018E3001227627BC07A027DC87C007F04122762C4
:1018F3007B337A017DC87C007F051227627B067AE1
:10190300027DC87C007F061227627B007A027DC8B5
:101913007C007F071227627BD87A017DC87C007F19
:10192300081227627BE412275A7B507A027DC87C17
:10193300007F0A1227627B237A017DC87C007F0B1C
:101943001227627B3B7A037DC87C007F0C122762DF
:101953007BFC7A017DC87C007F0D1227627BE97ACC
:10196300017DC87C007F0E1227627BF77A017DC858
:101973007C007F0F1227627BDD7A017DC87C007FAC
:1019830010122762023C4F7BF67A017DC87C007FF0
:10199300011227627B537A027DC87C007F021227E3
:1019A300627B507A027DC87C007F031227627B41F1
:1019B3007A037DC87C007F041227627B7B7A007DDB
:1019C300C87C007F051227627B7A7A017DC87C0080
:1019D3007F061227627BD87A017DC87C007F0712BD
:1019E30027627B077A027DC87C007F081227627B0F
:1019F300E512275A7B547A027DC87C007F0A12279E
:101A0300627B967A017DC87C007F0B1227627B8202
:101A13007A027DC87C007F0C1227627B127A027DDA
:101A2300C87C007F0D1227627BD07A017DC87C00C1
:101A33007F0E1227627BBB7A007DC87C007F0F126A
:101A430027627B277A037DC87C007F1012276202FE
:101A53003C4F7BFE7A017DC87C007F011227627BAD
:101A6300217A027DC87C007F021227627BC47A013F
:101A73007DC87C007F031227627B707A027DC87C5D
:101A8300007F041227627B6B7A017DC87C007F058F
:101A93001227627B2C7A027DC87C007F06122762A4
:101AA3007BE47A017DC87C007F071227627BFA7A88
:101AB300017DC87C007F081227627BE012275A7BD6
:101AC300357A027DC87C007F0A1227627B367A034F
:101AD3007DC87C007F0B1227627BE67A007DC87C81
:101AE300007F0C1227627BE07A017DC87C007F0DAA
:101AF3001227627B007A027DC87C007F0E12276268
:101B03007BB57A017DC87C007F0F1227627B2B7A1D
:101B1300027DC87C007F10122762023C4F7BFF7A54
:101B2300017DC87C007F011227627B147A027DC885
:101B33007C007F021227627B277A017DC87C007FAD
:101B4300031227627BF57A017DC87C007F0412278C
:101B5300627BA67A017DC87C007F051227627B9A8F
:101B63007A027DC87C007F061227627BD77A017DCB
:101B7300C87C007F071227627BF47A017DC87C0052
:101B83007F081227627BFC12275A7B207A027DC8CA
:101B93007C007F0A1227627BFC7A027DC87C007F6F
:101BA3000B1227627B2D7A017DC87C007F0C1227E4
:101BB300627402FBFA7DC87C007F0D1227627BC032
:101BC3007A017DC87C007F0E1227627BC37A007D79
:101BD300C87C007F0F1227627B147A037DC87C00C8
:101BE3007F10122762023C4F7BFF7A017DC87C0085
:101BF3007F011227627B267A027DC87C007F021256
:101C030027627B917A017DC87C007F031227627B68
:101C1300A97A027DC87C007F041227627B067A01C1
:101C23007DC87C007F051227627B247A027DC87CF5
:101C3300007F061227627B017A027DC87C007F0742
:101C43001227627B017A027DC87C007F081227621B
:101C53007BF512275A7B577A037DC87C007F0A12D3
:101C630027627B047A017DC87C007F0B1227627B8D
:101C7300197A037DC87C007F0C1227627BCC7A0023
:101C83007DC87C007F0D1227627BCA7A017DC87CE8
:101C9300007F0E1227627BFA7A017DC87C007F0FDA
:101CA3001227627BEA7A017DC87C007F10122762CB
:101CB300023C4F7B017A027DC87C007F01122762C0
:101CC3007B457A027DC87C007F021227627BEC7A17
:101CD300017DC87C007F031227627B147A027DC8D2
:101CE3007C007F041227627BCA7A017DC87C007F57
:101CF300051227627B2C7A027DC87C007F0612279F
:101D0300627BB97A017DC87C007F071227627BFE64
:101D13007A017DC87C007F081227627BF512275A5F
:101D23007B5B7A037DC87C007F0A1227627BBF7AC4
:101D3300007DC87C007F0B1227627B667A037DC817
:101D43007C007F0C1227627BC67A007DC87C007FF3
:101D53000D1227627BCD7A017DC87C007F0E12278E
:101D6300627BF37A017DC87C007F0F1227627BECD4
:101D73007A017DC87C007F10122762023C4F7B07EB
:101D83007A027DC87C007F011227627B6E7A027D16
:101D9300C87C007F021227627BE57A017DC87C0044
:101DA3007F031227627BEB7A017DC87C007F0412DC
:101DB30027627BD37A017DC87C007F051227627B73
:101DC300FF7A017DC87C007F061227627B967A0129
:101DD3007DC87C007F071227627BFE7A017DC87C69
:101DE300007F081227627BF212275A7B4B7A027D0F
:101DF300C87C007F0A1227627BF97A007DC87C00C9
:101E03007F0B1227627B2A7A037DC87C007F0C122A
:101E130027627BE97A017DC87C007F0D1227627BF4
:101E2300EB7A017DC87C007F0E1227627BEF7A017B
:101E33007DC87C007F0F1227627BEA7A017DC87C14
:101E4300007F10122762023C4F7BFF7A017DC87C22
:101E5300007F011227627B5A7A017DC87C007F02D2
:101E63001227627BD67A017DC87C007F031227622A
:101E73007BDC7A007DC87C007F041227627BE67AD4
:101E8300027DC87C007F051227627B0A7A027DC827
:101E93007C007F061227627BB37A027DC87C007FB9
:101EA300071227627BFE7A017DC87C007F08122718
:101EB300627BF212275A7B4B7A027DC87C007F0A31
:101EC3001227627B0D7A017DC87C007F0B1227628B
:101ED3007B2A7A037DC87C007F0C1227627BE77A1A
:101EE300017DC87C007F0D1227627BEB7A017DC8E0
:101EF3007C007F0E1227627BED7A017DC87C007F18
:101F03000F1227627BE87A017DC87C007F101227BD
:101F130062023C4F7BF27A017DC87C007F0112276D
:101F2300627BFA7A017DC87C007F021227627BB54F
:101F33007A017DC87C007F031227627B6E7A027D63
:101F4300C87C007F041227627B857A017DC87C00F0
:101F53007F051227627B517A027DC87C007F0612BF
:101F630027627B157A027DC87C007F071227627B7C
:101F7300007A027DC87C007F081227627BFA122751
:101F83005A7BF47A027DC87C007F0A1227627B3673
:101F93007A027DC87C007F0B1227627BD37A017D96
:101FA300C87C007F0C1227627BE17A017DC87C002C
:101FB3007F0D1227627BEE7A017DC87C007F0E12B3
:101FC30027627BE97A017DC87C007F0F1227627B41
:101FD300F17A017DC87C007F10122762023C4F7B9F
:101FE300D57A017DC87C007F011227627BF67A01D6
:101FF3007DC87C007F021227627B8D7A017DC87CBD
:10200300007F031227627B397A027DC87C007F043C
:102013001227627B8A7A017DC87C007F05122762C2
:102023007B467A027DC87C007F061227627B1E7A7C
:10203300027DC87C007F071227627BFE7A017DC880
:102043007C007F081227627BF112275A7B3E7A03BA
:102053007DC87C007F0A1227627B9C7A017DC87C45
:10206300007F0B1227627B627A007DC87C007F0CA5
:102073001227627BDE7A017DC87C007F0D12276206
:102083007B297A037DC87C007F0E1227627BBA7A94
:10209300017DC87C007F0F1227627BCD7A017DC84A
:1020A3007C007F10122762023C4F7BFE7A017DC8C1
:1020B3007C007F011227627B2A7A027DC87C007F25
:1020C300021227627B867A017DC87C007F03122778
:1020D300627BC67A017DC87C007F041227627B0184
:1020E3007A027DC87C007F051227627B2A7A027DF3
:1020F300C87C007F061227627B3B7A027DC87C0086
:102103007F071227627BD77A017DC87C007F081284
:1021130027621227587B587A027DC87C007F0A12F7
:1021230027627B1A7A037DC87C007F0B1227627BB0
:102133000D7A017DC87C007F0C1227627BD57A0162
:102143007DC87C007F0D1227627B317A027DC87CBB
:10215300007F0E1227627BE17A017DC87C007F0F2E
:102163001227627BCE7A017DC87C007F1012276222
:10217300023C4F7B277A027DC87C00E4FF12276272
:102183007B037A027DC87C007F011227627BF47A8D
:10219300017DC87C007F021227627B897A017DC89A
:1021A3007C007F031227627B357A027DC87C007F27
:1021B300041227627B9D7A017DC87C007F0512276C
:1021C300627B5A7A027DC87C007F061227627B1DE0
:1021D3007A027DC87C007F071227627BFC7A017D2F
:1021E300C87C007F081227627BEB7A017D2C7C017F
:1021F3007F091227627BA67A027D2C7C017F0A125B
:1022030027627BB27A027D2C7C017F0B1227627BD3
:102213005B7A017D2C7C017F0C1227627B887A011B
:102223007D2C7C017F0D1227627BF57A017D2C7C4E
:10223300017F0E122762023C4F7B287A027DC87C05
:1022430000E4FF1227627BF27A017DC87C007F01E4
:102253001227627BFA7A017DC87C007F0212276213
:102263007BB57A017DC87C007F031227627B6E7A7F
:10227300027DC87C007F041227627B857A017DC8BA
:102283007C007F051227627B517A027DC87C007F28
:10229300061227627B157A027DC87C007F0712270E
:1022A300627B007A027DC87C007F081227627BFE76
:1022B3007A007D907C017F091227627B917A027DEF
:1022C300907C017F0A1227627B0E7A047D907C0149
:1022D3007F0B1227627BC37A017D907C017F0C12F6
:1022E30027627B647A017D907C017F0D1227627BDC
:1022F300E77A027D907C017F0E122762023C4F7BBE
:10230300287A027DC87C00E4FF1227627BF37A01FE
:102313007DC87C007F011227627BFC7A017DC87C2B
:10232300007F021227627BB07A017DC87C007F03A5
:102333001227627B687A027DC87C007F04122762C1
:102343007B797A017DC87C007F051227627B517AF5
:10235300027DC87C007F061227627402FBFA7DC8E7
:102363007C007F071227627B007A027DC87C007F96
:10237300081227627B3B7A017D907C017F0912273B
:10238300627BED7A027D907C017F0A1227627B8C4F
:102393007A027D907C017F0B122762E4FBFA7D9029
:1023A3007C017F0C1227627BBA7A017D907C017FCE
:1023B3000D1227627BE07A027D907C017F0E12274B
:1023C30062023C4F7BFE7A017D967C00E4FF12277C
:1023D300627BE27A017D967C007F011227627BAAF1
:1023E3007A017D967C007F021227627BB67A017D9B
:1023F300967C007F031227627B947A017D967C0092
:102403007F041227627B3F7A027D967C007F051250
:1024130027627B5B7A027D967C007F061227627BB4
:10242300417A027D967C007F071227627B1E7A0227
:102433007D967C007F081227627BE27A017D9612EB
:10244300275E7B587A027D967C007F0A1227627B87
:102453002E7A027D967C007F0B1227627BF47A0131
:102463007D967C007F0C1227627BE47A017D967C4B
:10247300007F0D1227627BE57A017D967C007F0E3B
:10248300122762023C4F7BF67A017D2C7C017F018F
:102493001227627B527A027D2C7C017F0212276213
:1024A3007B4F7A027D2C7C017F031227627B417A6A
:1024B300037D2C7C017F041227627B7B7A007D2CB9
:1024C3007C017F051227627B7A7A017D2C7C017F58
:1024D300061227627BD87A017D2C7C017F071227A5
:1024E300627B077A027D2C7C017F081227627BDEE8
:1024F3007A017D907C017F091227627BB17A017D8D
:10250300907C017F0A1227627B637A037D907C01B2
:102513007F0B1227627B747A007D907C017F0C1203
:1025230027627B557A027D907C017F0D1227627BA7
:10253300307A027D907C017F0E122762023C4F129B
:1025430020AD7F2C7E01123E881228897F2C7E01CC
:10255300123E88121A557F2C7E01123E881226A73E
:102563007F2C7E01123E881200267F2C7E01123EB4
:1025730088121B207F2C7E01123E881236B37F2CDB
:102583007E01123E88120F9A7F2C7E01123E881222
:1025930010727F2C7E01123E88120B4E7F2C7E011F
:1025A300123E881236FC7F2C7E01123E8812114A9D
:1025B3007F2C7E01123E881237457F2C7E01123E0E
:1025C30088121BEB7F2C7E01123E88121CB67F2CD7
:1025D3007E01123E88121D817F2C7E01123E8812DD
:1025E3001E4C7F2C7E01123E881212227F2C7E010C
:1025F300023E887B2B7A027D647C007F0112276276
:102603007B817A027D647C007F021227627B157ACC
:10261300027D647C007F031227627BEF7A027D6474
:102623007C007F041227627BB57A007D647C007F87
:10263300051227627B897A017D647C007F0612275D
:10264300627BE17A017D647C007F071227627B0D48
:102653007A027D647C007F081227627BFD12275A71
:102663007B3E7A027DC87C007F0A1227627B1C7A3C
:10267300017DC87C007F0B1227627B077A037DC82C
:102683007C007F0C1227627B087A027DC87C007F66
:102693000D1227627BEA7A017DC87C007F0E122728
:1026A30062023C4F7B017A027DC87C007F011227C6
:1026B300627B117A027DC87C007F021227627B1F36
:1026C3007A017DC87C007F031227627BF67A017D45
:1026D300C87C007F041227627BBD7A017DC87C0021
:1026E3007F051227627BA07A027DC87C007F0612D9
:1026F30027627BEA7A017DC87C007F071227627B11
:102703000C7A027DC87C007F081227627BF11227B6
:102713005A7B7D7A037DC87C007F0A1227627B5433
:102723007A037DC87C007F0B1227627BE17A007DF0
:10273300C87C007F0C1227627BCF7A007DC87C00A7
:102743007F0D1227627BC47A017DC87C007F0E1245
:102753002762023C4F7BEE7DC87A017C007F098FA4
:10276300158C168D178A188B19E4F51AC3E519947D
:10277300FFE518940340067518037519FFC3E517A1
:1027830094FFE516940340067516037517FFE515C8
:1027930024292519FDE5182D2517FDE5162DF51A14
:1027A300631AFF53AFF7C285D2847FFF1241047FC0
:1027B300FF124104AF151241047F071241047F0445
:1027C3001241047F1E124104AF19124104E518FFA0
:1027D300124104AF17124104E516FF124104AF1A68
:1027E30012410443AF08D285C2847F647E00023E57
:1027F300887B2E7A027DC87C007F011227627BF3DF
:102803007A017DC87C007F021227627BDF7A017D1B
:10281300C87C007F031227627B687A017DC87C0035
:102823007F041227627B927A027DC87C007F0512A7
:1028330027627B4F7A027DC87C007F061227627B6A
:10284300E77A017DC87C007F071227627BE87A0163
:102853007DC87C007F081227621227587B587A02B2
:102863007DC87C007F0A1227627BE47A017DC87CE5
:10287300007F0D1227627BF47A017DC87C007F0EF6
:10288300122762023C4F7BFF7A017DC87C007F01E7
:102893001227627B317A027DC87C007F0212276295
:1028A3007B927A017DC87C007F031227627B797A51
:1028B300027DC87C007F041227627B517A017DC8A8
:1028C3007C007F051227627B4F7A027DC87C007FE4
:1028D300061227627BEE7A017DC87C007F071227F0
:1028E300627BF27A017DC87C007F0812276212277F
:1028F300587B587A027DC87C007F0A1227627B00CE
:102903007A027DC87C007F0D1227627BE47A017D09
:10291300C87C007F0E122762023C4F7B117A027D36
:10292300647C00E4FF1227627BFD7A017D647C00F6
:102933007F011227627BFA7A017D647C007F021299
:1029430027627B9C7A017D647C007F031227627B74
:102953005F7A027D647C007F041227627B737A01B5
:102963007D647C007F051227627B597A027D647C3B
:10297300007F061227627402FBFA7D647C007F07E6
:102983001227627BF47A017D647C007F0812276240
:102993007BEC7A017D647C007F0F1227627BDE7AF9
:1029A300017D647C007F10122762023C4F787FE434
:1029B300F6D8FD7581270229F7022C4AE493A3F880
:1029C300E493A34003F68001F208DFF48029E49343
:1029D300A3F85407240CC8C333C4540F4420C8833A
:1029E3004004F456800146F6DFE4800B010204083C
:1029F30010204080903F05E47E019360BCA3FF5408
:102A03003F30E509541FFEE493A360010ECF54C089
:102A130025E060A840B8E493A3FAE493A3F8E49311
:102A2300A3C8C582C8CAC583CAF0A3C8C582C8CA19
:102A3300C583CADFE9DEE780BE123FB4123FD0127E
:102A43003FEC124008E51464016073900004E064F5
:102A53005B70F27FF47E01123E88C2AF900004E007
:102A6300FF124124900005E0FF124124900005E08D
:102A730024FE601514601A14601F14602724047068
:102A83002F75A0EE1240B0801675A0ED1240BF80E6
:102A93000E75A0EC12412C800675A0EB1240CEE41B
:102AA300F5A0800C75A0EA1240DDE4F5A0751405CD
:102AB3007FC87E00123E88123EA8D2AF80870240B4
:102AC300247BF57A017D647C007F011227627BCC35
:102AD3007A017D647C007F021227627BD37A017DB9
:102AE300647C007F031227627B627A027D647C0030
:102AF3007F041227627B747A017D647C007F051258
:102B030027627B3C7A027D647C007F061227627B0E
:102B13001B7A027D647C007F071227627BF97A01AE
:102B23007D647C007F081227627BE87A017DC87C84
:102B3300007F0F1227627BE07A017DC87C007F1043
:102B4300122762023C4F7B087A027D647C007F017E
:102B53001227627B117A027D647C007F0212276256
:102B63007B947A017D647C007F031227627B6F7AFA
:102B7300027D647C007F041227627B747A017D648A
:102B83007C007F051227627B597A027D647C007F7B
:102B9300061227627B007A027D647C007F0712277E
:102BA300627BF87A017D647C007F081227627BF9DF
:102BB3007A017D647C007F0F1227627BE07A017DBE
:102BC300647C007F10122762023C4F7F3112410F59
:102BD3007F3112410F7F3112410FC2AF900015E0D8
:102BE30024CE60191460282402703A7BFF7A41795D
:102BF30055123E1F75A0E47FAC7E0D80227BFF7AC9
:102C0300417959123E1F75A0E37FB87E0B80107B7C
:102C1300FF7A41795F123E1F75A0E27FB87E0B12E7
:102C23003E88E4F5A0123EE6D2AF7BFF7A41796697
:102C3300123CA77BFF7A417966123CA77BFF7A415E
:102C43007966123CA7809312404012393C1200036C
:102C53001239B6124089E4F5A012060EE514146089
:102C63001514601D14602614602F240470397BFF33
:102C73007A41793280067BFF7A417939123E1F808F
:102C8300297BFF7A417940123E1F123DCE7BFF7AAA
:102C9300417947123E1F122A3C7BFF7A41794E123B
:102CA3003E1F122BCE8003E4F5147FC87E00123E34
:102CB3008880A97BE37A017DF47C017F0912276276
:102CC3007B527A027DF47C017F0A1227627B4D7A64
:102CD300027DF47C017F0B1227627BD87A017DF49D
:102CE3007C017F0C1227627BE17A017DF47C017FFA
:102CF3000D1227627BE57A017DF47C017F0E12279A
:102D0300627BF27A017DF47C017F0F1227627B04E0
:102D13007A027DF47C017F10122762023C4F7BE232
:102D23007A017DF47C017F091227627BCC7A037DD3
:102D3300F47C017F0A1227627B617A017DF47C01B6
:102D43007F0B1227627B827A027D907C017F0C12BB
:102D530027627B8C7A007D2C7C017F0D1227627B9E
:102D6300D07A017D2C7C017F0E1227627BB77A001B
:102D73007D2C7C017F0F1227627B2C7A037D2C7CB8
:102D8300017F10122762023C4F7B077A027D2C7C65
:102D930001E4FF1227627B7A7A017D2C7C017F0993
:102DA3001227627BEA7A017D2C7C017F0A1227625B
:102DB3007BA77A037D2C7C017F0B1227627BE87A49
:102DC300007D2C7C017F0C1227627B327A027D2CE2
:102DD3007C017F0D1227627BF27A017D2C7C017FBF
:102DE3000E122762023C4F7BA17A027D2C7C01E408
:102DF300FF1227627B7B7A017D2C7C017F091227DE
:102E0300627B207A027D2C7C017F0A1227627B1C65
:102E13007A037D2C7C017F0B1227627B817A007DF4
:102E23002C7C017F0C1227627B697A017D2C7C014B
:102E33007F0D1227627BEF7A017D2C7C017F0E12BE
:102E43002762023C4F7BFE7A017D2C7C01E4FF125A
:102E530027627BC57A017D2C7C017F091227627B67
:102E6300437A027D2C7C017F0A1227627B447A031A
:102E73007D2C7C017F0B1227627BD27A007D2C7C18
:102E8300017F0C1227627BED7A017D2C7C017F0D83
:102E93001227627BED7A017D2C7C017F0E12276263
:102EA300023C4F7BA17A027DF47C01E4FF1227628E
:102EB3007B107A027DF47C017F091227627B577AAB
:102EC300037DF47C017F0A1227627B437A017DF440
:102ED3007C017F0B1227627B547A007DF47C017F97
:102EE3000C1227627BEE7A017DF47C017F0D1227A1
:102EF300627BB67A027DF47C017F0E122762023C6C
:102F03004F7B9B7A017DF47C01E4FF1227627B15E2
:102F13007A017DF47C017F091227627B6C7A027D42
:102F2300F47C017F0A1227627BC87A037DF47C015B
:102F33007F0B1227627BAA7A027DF47C017F0C123D
:102F430027627BB27A007DF47C017F0D1227627BBE
:102F5300E47A017DF47C017F0E122762023C4F7BF1
:102F6300157A027D2C7C01E4FF1227627BE47A014F
:102F73007D2C7C017F091227627B5E7A027D2C7C8B
:102F8300017F0A1227627B397A027D2C7C017F0B39
:102F93001227627BDD7A017D2C7C017F0C12276274
:102FA3007BD97A017D2C7C017F0D1227627BE57A28
:102FB300017D2C7C017F0E122762023C4F7B257A18
:102FC300017D907C01E4FF1227627B167A017D90DC
:102FD3007C017F091227627B3C7A027D907C017F12
:102FE3000A1227627BD47A037D907C017F0B122720
:102FF300627BA87A007D907C017F0C1227627B0D97
:103003007A017D907C017F0D1227627BE47A017D3A
:10301300907C017F0E122762023C4F7B827A017DF6
:10302300C87C007F051227627B557A017DC87C002E
:103033007F061227627BF07A027DC87C007F07122D
:1030430027627B0A7A027DC87C007F081227627B95
:10305300E412275A7B547A027DC87C007F0A122728
:10306300627BC67A007DC87C007F0B122762023C1C
:103073004F7B6A7A017DC87C00E4FF1227627B16CE
:1030830012275A7B4D7A027DC87C007F0A12276281
:103093007B987A037DC87C007F0B1227627BC67AFC
:1030A300007DC87C007F0C1227627B667A017DC895
:1030B3007C007F0D1227627BE47A017DC87C007F50
:1030C3000E122762023C4F7BAC7A027DC87C00E47F
:1030D300FF1227627BF212275A7B2F7A037DC87C6B
:1030E300007F0A1227627BDB7A027DC87C007F0B9C
:1030F3001227627BB97A007DC87C007F0C1227629D
:103103007B527A027DC87C007F0D1227627BD67AC0
:10311300027DC87C007F0E122762023C4F7BBD7A82
:10312300027DC87C00E4FF1227627B4A12275A7B88
:10313300BF7A027DC87C007F0A1227627B3B7A023A
:103143007DC87C007F0B1227627B557A007DC87C8B
:10315300007F0C1227627B7D7A017DC87C007F0D86
:103163001227627BAA7A027DC87C007F0E12276237
:10317300023C4F7BC97A007D907C017F0912276254
:103183007B547A027D907C017F0A1227627BFF7A4F
:10319300037D907C017F0B1227627BF27A017D9085
:1031A3007C017F0C1227627BEE7A017D907C017F8C
:1031B3000D1227627BE77A017D907C017F0E122737
:1031C30062023C4F7BE87A017D2C7C017F09122748
:1031D300627BD77A027D2C7C017F0A1227627B40B7
:1031E3007A037D2C7C017F0B1227627BB97A007DE9
:1031F3002C7C017F0C1227627B637A017D2C7C017E
:103203007F0D1227627BFD7A017D2C7C017F0E12DC
:103213002762023C4F7BE87A017DF47C017F09122F
:1032230027627BD77A027DF47C017F0A1227627BB7
:10323300407A037DF47C017F0B1227627BB57A0011
:103243007DF47C017F0C1227627B107A027DF47C73
:10325300017F0D1227627BEF7A027DF47C017F0EE2
:10326300122762023C4F7B357A017DF47C017F0992
:103273001227627BE77A017DF47C017F0A122762C1
:103283007B3E7A037DF47C017F0B1227627BC27A3B
:10329300007DF47C017F0C1227627B697A017DF447
:1032A3007C017F0D1227627BD67A017DF47C017F3E
:1032B3000E122762023C4F7BE57A017DF47C017F8D
:1032C300091227627BC17A017DF47C017F0A1227F0
:1032D300627B607A037DF47C017F0B1227627BD6CD
:1032E3007A007DF47C017F0C1227627B147A017DC6
:1032F300F47C017F0D1227627BEC7A017DF47C0163
:103303007F0E122762023C4F7BE77A017D907C019E
:103313007F091227627B097A037D907C017F0A1261
:1033230027627B607A037D907C017F0B1227627B8F
:10333300D67A007D907C017F0C1227627B887A020B
:103343007D907C017F0D1227627BEC7A017D907C5E
:10335300017F0E122762023C4F7B737A017D587CFA
:10336300027F091227627BBC7A027D587C027F0AA6
:103373001227627B307A027D587C027F0B12276210
:103383007BD77A017D587C027F0C1227627B607A9F
:10339300017D587C027F0D1227627B817A027D5862
:1033A3007C027F0E122762023C4F7BF57A007D5828
:1033B3007C027F091227627B577A037D587C027F48
:1033C3000A1227627B2A7A027D587C027F0B12271E
:1033D300627BDE7A017D587C027F0C1227627BD2EE
:1033E3007A007D587C027F0D1227627BDE7A027D94
:1033F300587C027F0E122762023C4F7BE27A017DEA
:10340300F47C017F091227627B837A037DF47C01BC
:103413007F0A1227627B637A037DF47C017F0B12A0
:1034230027627B707A007DF47C017F0C1227627B1C
:10343300B17A007DF47C017F0D1227627BD47A017F
:103443007DF47C017F0E122762023C4F7BE57A01FB
:103453007DF47C017F091227627B617A027DF47C13
:10346300017F0A1227627B567A037DF47C017F0B6E
:103473001227627BAB7A007DF47C017F0C122762FA
:103483007B817A027D587C027F0D1227627BB47A9E
:10349300027DF47C017F0E122762023C4F7BEB7AA4
:1034A300017D907C017F091227627B557A027D9012
:1034B3007C017F0A1227627B1C7A037D907C017F4B
:1034C3000B1227627B2A7A027D907C017F0C1227E4
:1034D300627BBB7A017D907C017F0D1227627BE2C8
:1034E3007A017D907C017F0E122762023C4F7B475D
:1034F3007A017D907C017F091227627BCD7A017D61
:10350300907C017F0A1227627B2E7A037D907C01D7
:103513007F0B1227627BCF7A007D907C017F0C1298
:1035230027627B4B7A027D907C017F0D1227627BA1
:10353300AA7A027D907C017F0E122762023C4F7BA8
:103543009C7A027DC812275E7BE87A027DC87C00E4
:103553007F0A1227627BB37A037DC87C007F0B123C
:1035630027627B067A007DC87C007F0C1227627B72
:10357300397A027DC87C007F0D1227627BE57A01D0
:103583007DC87C007F0E122762023C4F7BF9122715
:103593005A7B4A7A027DC87C007F0A1227627BEB42
:1035A3007A007D2C7C017F0B1227627BFF7A037DDF
:1035B300907C017F0C1227627BF37A017D907C0162
:1035C3007F0D1227627BEE7A017D907C017F0E12C4
:1035D3002762023C4F7BE312275A7B527A027DC853
:1035E3007C007F0A1227627B0C7A017DC87C007FF6
:1035F3000B1227627BF97A027DC87C007F0C1227AD
:10360300627BEA7A017DC87C007F0D1227627BE929
:103613007A017DC87C007F0E122762023C4F7BF14A
:1036230012275A7B5A7A027DC87C007F0A122762CE
:103633007B957A037DC87C007F0B1227627B817A9E
:10364300007DC87C007F0C1227627BEA7A017DC86B
:103653007C007F0D1227627BDA7A017DC87C007FB4
:103663000E122762023C4F7B3712275A7BAC7A0239
:103673007DC87C007F0A1227627B407A037DC87C69
:10368300007F0B1227627BD37A007DC87C007F0CFE
:103693001227627B9E7A017DC87C007F0D12276210
:1036A3007B9F7A027DC87C007F0E122762023C4F0B
:1036B3007BF612275A7B337A027DC87C007F0A127D
:1036C30027627B5D7A037DC87C007F0B1227627BB8
:1036D300B27A007DC87C007F0C1227627BFD7A01E1
:1036E3007DC87C007F0D1227627BE87A017DC87C50
:1036F300007F0E122762023C4F7BF712275A7B6131
:103703007A037DC87C007F0A1227627BFC7A007DE6
:10371300C87C007F0B1227627B157A037DC87C006F
:103723007F0C1227627BEE7A007DC87C007F0D122E
:1037330027627BE07A017DC87C007F0E122762023C
:103743003C4F7BF912275A7B4A7A037DC87C007F62
:103753000A1227627BF07A007DC87C007F0B122758
:10376300627B267A037DC87C007F0C1227627BD1A3
:103773007A007DC87C007F0D1227627BE07A017D91
:10378300C87C007F0E122762023C4F7BEF12275A40
:103793007B817A027DC87C007F0A1227627BFF7AD5
:1037A300037DC87C007F0B1227627B0F7A007DC8E4
:1037B3007C007F0C1227627BAB7A017DC87C007F83
:1037C3000D1227627BE47A017DC87C007F0E1227ED
:1037D30062023C4F7B3912275A7BDF7A017D907C52
:1037E300017F0A1227627B347A037DC87C007F0B3A
:1037F3001227627BEA7A007D907C017F0C1227629C
:103803007B387A027D907C017F0D1227627BE57AFB
:10381300027D907C017F0E122762023C4F7BF112E6
:10382300275A7BCE7A027DC87C007F0A1227627BEF
:10383300467A027DC87C007F0B1227627B687A0080
:103843007DC87C007F0C1227627BE17A017DC87CF6
:10385300007F0D1227627BE07A017DC87C007F0E1A
:10386300122762023C4F7BF312275A7B427A037D75
:10387300C87C007F0A1227627B977A017DC87C008F
:103883007F0B1227627BA47A007DC87C007F0C1219
:1038930027627BD97A017DC87C007F0D1227627B6A
:1038A300327A037DC87C007F0E122762023C4FC030
:1038B300E0C083C082C0D053AFF7E5AC30E0215302
:1038C300ACFE74072522F582E43400F583E5ADF000
:1038D3000522D3E522940E74809480400375220060
:1038E300E5AC30E10353ACFD43AF08D0D0D082D078
:1038F30083D0E032C0E0C083C082C0D053AFEFE5D5
:103903008430E0215384FE74152523F582E43400CA
:10391300F583E585F00523C3E52394017480948042
:103923004003752300E58430E1035384FD43AF1066
:10393300D0D0D082D083D0E03243BA0153873F75D1
:103943009850438E01759A5043AC5053AC704384E6
:1039530010538430438440438E0475D7E875D6FFF3
:10396300438E1043D12275D57075D4FF75D3E87596
:10397300D2FF43D18822C0E0C083C082C0D0C2AC92
:10398300309820C29874002520F582E43400F58332
:10399300E599F00520C3E5209404748094804003E6
:1039A300752000309902C299D2ACD0D0D082D08396
:1039B300D0E032C2B47B007A0079087519057F2AFA
:1039C300123C1D7D017F2112409D7D017F2212400B
:1039D3009D7D377F2512409D7D017F3112409D7D66
:1039E300267F2612409D7D0F7F2012409DD2B42258
:1039F300C0E0C0F0C083C082C0D075D000C000C09A
:103A030001C002C003C004C005C006C00712405A6B
:103A1300D007D006D005D004D003D002D001D00007
:103A2300D0D0D082D083D0F0D0E032BB01068982DF
:103A33008A83E0225002E722BBFE02E32289828AC4
:103A430083E49322F8BB010DE58229F582E5833AED
:103A5300F583E8F0225006E92582C8F622BBFE056D
:103A6300E92582C8F2227B387A027D2C7C017F050E
:103A73001227627BE37A007D2C7C017F061227628A
:103A83007B727A027D2C7C017F071227627BEC7AA2
:103A9300017D2C7C017F08122762023C4F7BA47AB4
:103AA300007D2C7C017F051227627BE37A007D2C4D
:103AB3007C017F061227627B727A027D2C7C017F58
:103AC300071227627BEC7A017D2C7C017F08122789
:103AD30062023C4F7BB57A017D2C7C017F05122766
:103AE300627B1B7A027D2C7C017F061227627B326C
:103AF3007A027D2C7C017F071227627BF37A017D9A
:103B03002C7C017F08122762023C4F7B097A027DDD
:103B13002C7C017F011227627B8D7A017D2C7C0135
:103B23007F021227627B467A037D2C7C017F03127E
:103B330027627B1A7A027D2C7C017F0412276202A2
:103B43003C4F7B097A027D2C7C017F011227627B2B
:103B53008F7A017D2C7C017F021227627B467A03D8
:103B63007D2C7C017F031227627B117A037D2C7CE1
:103B7300017F04122762023C4F7B037A027D2C7C77
:103B8300017F011227627BC47A017D2C7C017F02B5
:103B93001227627BE97A017D2C7C017F0312276265
:103BA3007B577A027D2C7C017F04122762023C4FF3
:103BB3007BFF7A017DC87C007F011227627BF97A43
:103BC300017DC87C007F081227627BF27A017DC8E1
:103BD3007C007F0F1227627BE57A017DC87C007F22
:103BE30010122762023C4F8B1C8A1D891EC292123F
:103BF3000016AE07E4FDEDC3951F50177FFF1200BB
:103C030016AB1CAA1DA91E8D82758300EF123A47BD
:103C13000D80E3D292D292AF06228B168A178918AF
:103C2300C292120016AE07E4FDEDC395195018AB0E
:103C3300160518E518AA177002051714F9123A2E7B
:103C4300FF1200160D80E2D292AF062253AFF7C2E5
:103C530085D2847FFF1241047FFF1241047FFE124D
:103C630041047F021241047F051241047FFA12418D
:103C73000443AF08D285C284228B248A2589265324
:103C8300AFF7AB24AA25A926123A2E60130526E521
:103C9300267002052514F9123A2EFF12410480E220
:103CA30043AF08228B158A16891753AFEFAB15AABA
:103CB30016A917123A2E60130517E5177002051699
:103CC30014F9123A2EFF12410F80E243AF10227B08
:103CD300C97A007D207C037F091227627B577A0211
:103CE3007D207C037F0A1227627BFF7A037D207C81
:103CF300037F0B122762023C4F7B7C7A037D907C0F
:103D0300017F0C1227627BF37A017D907C017F0D8A
:103D13001227627BEE7A017D907C017F0E1227626F
:103D2300023C4F7BDE7A017D907C017F0912276282
:103D33007B2B7A027D907C017F0A1227627B127AA9
:103D4300007D907C017F0B122762023C4F7B2A7A15
:103D5300027DF47C017F0C1227627BB17A007DF433
:103D63007C017F0D1227627BD47A017DF47C017F75
:103D73000E122762023C4F7BAB7A007DF47C017FFD
:103D83000C1227627B1A7A027D587C027F0D122760
:103D9300627BB47A027DF47C017F0E122762023CBF
:103DA3004F7B067A017D907C017F0C1227627B6733
:103DB3007A027D907C017F0D1227627BBF7A027DA0
:103DC300907C017F0E122762023C4FE51464016070
:103DD30023E52714600F146011146011240370107D
:103DE300120096800B122542800612037975140186
:103DF300052780D7227F071240ECAC07AD047F274D
:103E030012409DEC30E612751F017F61123BEA7D83
:103E1300FF7FE212409D7F40227F00228B158A168E
:103E23008917AB15AA16A917123A2E60130517E5C1
:103E3300177002051614F9123A2EFF12412480E27C
:103E4300227BAD12275A7BE97A017DC87C007F0A69
:103E53001227627BB27A037DC87C007F0B12276234
:103E6300023C4F7BEF12275A7B477A027DC87C00C6
:103E73007F0A1227627BCB7A037DC87C007F0B12FB
:103E83002762023C4FE4FDFCC3ED9FEC9E5015E41A
:103E9300FBFA0BBB00010ABA04F8BB4CF50DBD00DD
:103EA300010C80E422E4FFEFC394037480948050F8
:103EB3000F74042FF582E43400F583E4F00F80E7F8
:103EC300E4F52122E4FFEFC3940E74809480500F35
:103ED30074072FF582E43400F583E4F00F80E7E400
:103EE300F52222E4FFEFC3940174809480500F7491
:103EF300152FF582E43400F583E4F00F80E7E4F551
:103F03002322012000012100012200012300050DCD
:103F1300E1E2E3E4E50508E1E2E3E4E5012700008B
:103F23007BCE7A027DC87C007F0A1227627B5B7A94
:103F3300027DC87C007F0D122762023C4F7B1F7AF3
:103F4300027D2C7C017F0B1227627B067A017DC8E0
:103F53007C007F0C122762023C4F7BCB7A017D9061
:103F63007C017F0D1227627BBE7A027D907C017FEC
:103F73000E122762023C4F7B227A017D907C017FE7
:103F8300091227627BE77A017D907C017F0A122761
:103F930062023C4F7B447A027D907C017F0A1227A8
:103FA300627BBB7A017D907C017F0D122762023C0C
:103FB3004F53AFFE7FA01240F97FA01240F97FA0BC
:103FC3001240F943AF017FE87E03023E8853AFFE00
:103FD3007FA11240F9E4FF1240F9E4FF1240F943D4
:103FE300AF017FE87E03023E8853AFFE7FA21240FB
:103FF300F9E4FF1240F9E4FF1240F943AF017FE80F
:104003007E03023E8853AFFE7FAB1240F97FAB12B3
:1040130040F9E4FF1240F943AF017FE87E03023E1B
:104023008853AFFE7FAC1240F97FAC1240F9E4FF36
:104033001240F943AF017FE87E03023E88E4F59323
:10404300F594F591F592F595F596F5B1F5B2F5B3CD
:10405300F5B4F5C9F5CA227B007A007912123DF84E
:10406300EF6440700B851214F5127FC8FE123E8870
:10407300227BEF12275A7B7A7A017DC87C007F0D61
:10408300122762023C4FD2AC43AF0143AF0843AFA8
:1040930010C28BD2AAD28AD2AF22AE05C29212002C
:1040A30016AD07AF06120016D292AF052200007FAD
:1040B3006A7E0F7D83DDFEDEFCDFFA2200007FD304
:1040C3007E1E7D0BDDFEDEFCDFFA2200007FFD7E1F
:1040D300237DDCDDFEDEFCDFFA2200007F947E150B
:1040E3007D53DDFEDEFCDFFA22C2921200167FFF53
:1040F300120016D292228F9BE59A30E1FB539AFD70
:10410300228FADE5AC30E1FB53ACFD228F85E58416
:1041130030E1FB5384FD22E4F5CF75CDC075CED0DD
:10412300228F993099FDC299221240BF0240BF30BD
:104133007830302020003078303120200030783043
:104143003220200030783033202000307830342083
:10415300200072656400677265656E007075727029
:054163006C6500310055
:00000001FF
