:03000000020246B3
:0C024600787FE4F6D8FD75816102028D1E
:10002600506F7765722075702120202020202020B7
:100036005761697474696E6720636D64212020209E
:100046000053746172742044616E63696E672E2E6C
:100056002E2E2E2E2E2E2020202020202020202046
:100066000044616E63696E672E2E2E2E2E2E2E2E66
:10007600202020202020202020202020202020207A
:10008600202000456D657267656E63792073746F15
:1000960070202020627574746F6E202E2E2E202004
:1000A6002020200053746F702064616E63696E6750
:1000B600202D20205761697474696E6720636D6412
:1000C6002E2E2E2E2E202020202000537461727496
:1000D60020766F69636520696E7465726163746901
:1000E6006F6E202E2E2E202020202020202000562D
:1000F6006F69636520696E746572616374696F6E9A
:100106002E2E2E2E2E2E2020202020202020202095
:100116002020202020202000456D657267656E63D3
:10012600792073746F7020202020627574746F6E4E
:10013600202E2E2E20202020202020200053746FD9
:100146007020766F69636520696E74657261637489
:10015600696F6E2D5761697474696E6720636D648B
:02016600200077
:10059E008E528F53120003AF53120003AF5302005B
:0105AE000349
:1001680012053312039712056312034F7FC87E00EE
:100178007D007C001204421205AF2084107FC87EE7
:10018800007D007C001204422084020561E561B410
:100198000A0050E69001A3F82828730201C1020161
:1001A800C90201DA0201E20201F30201FB02020CB8
:1001B8000202140202340202407BFF7A0079268090
:1001C800717F017E0012059E05617BFF7A007947E9
:1001D80080497BFF7A00796780587F027E0012058C
:1001E8009E05617BFF7A00798980307BFF7A0079F0
:1001F800AA803F7F037E0012059E05617BFF7A007F
:1002080079D180177BFF7A0079F580267F027E00FE
:1002180012059E05617BFF7A01791E1202D27FE8E2
:100228007E037D007C001204420201827BFF7A017A
:0E02380079431202D2020182E4F561020182D2
:0C051800015A00015B00015C00015D0065
:10053300E4F593F594F591F592F595F596F5B1F506
:0A054300B2F5B3F5B4F5C9F5CA220C
:080442008F598E588D578C561E
:10044A00900000AF82AE83E4FCFDAB59AA58A957CD
:10045A00A856D31204BF4011E4FFFE0FBF00010EDD
:09046A00BE04F8BF4CF5A380DAD2
:010473002266
:1003970043BA0153873F759850438E01759A50436E
:1003A700AC5053AC70438410538430438440438E25
:1003B7000475D77075D6FF438E1043D12275D5705B
:0D03C70075D4FF75D37075D2FF43D1882225
:0805E1008F993099FDC29922A7
:1004D0008B5E8A5F8960AB5EAA5FA9601204A6602A
:1004E000130560E5607002055F14F91204A6FF129F
:0504F00005E180E2229D
:0D05AF007F04900020E4F0A3DFFCE4F55A87
:0105BC00221C
:030023000203D401
:1003D400C0E0C083C082C0D0C2AC30981CC2987444
:1003E40020255AF582E43400F583E599F0055AE5B1
:1003F4005AC394044003755A00309902C299D2AC8E
:09040400D0D0D082D083D0E032C8
:0E052400050DE1E2E3E4E50508E1E2E3E4E5CC
:0A05D700E4F5CF75CDC075CED0223B
:0D05BD008FCFE5CD30E7FB75CDC0AFCF226D
:02058B00AE05BB
:10058D00C2921205BDAD07AF061205BDD292AF05E1
:01059D00223B
:0C05CA00C2921205BD7FFF1205BDD29247
:0105D6002202
:060474008B558A568957E2
:10047A00C2921205BDAE07E4FDEDC395585018AB04
:10048A00550557E557AA567002055614F91204A6DF
:0B049A00FF1205BD0D80E2D292AF06FC
:0104A5002234
:10040D00C2B47558017FA0120474D2B420B3FD7F1D
:10041D00071205CAAC07AD047F2712058BEC30E43B
:10042D000A7DFF7FE112058B7F1022EC30E5037F03
:04043D0020227FFFFB
:010441002298
:10034F00C2B47B007A00790D7558057F30120474A2
:10035F007B007A0079087558057F2A1204747D0195
:10036F007F2112058B7D017F2212058B7D217F243A
:10037F0012058B7D377F2512058B7D267F26120573
:08038F008B7D0E7F2002058B1F
:100563007F027E007D007C00120442C286C2B4D2A8
:04057300920205D714
:100003008F327B007A00793212040DBF200DB28645
:0C0013007FC87E007D007C0012044222A9
:10054D00C2C4C2B78FA07F017E007D007C00120463
:06055D0042D2B6C2B62234
:0D04F50074002555F582E43400F583E0FF26
:10050200D2C4C2B78FA07F017E007D007C0012049E
:0605120042D2B6C2B6227F
:100577007F3812054D7F0C12054D7F0612054D7F02
:040587000102054D1B
:0602D2008B528A5389548F
:1002D800E4F555F5957596FFD282120577AB52AACB
:1002E80053A9541204A660200554E554700205531E
:1002F80014F91204A6FFAE55055574002EF582E4D4
:100308003400F583EFF080D57F8012054DE4F55574
:100318001204F57F017E007D007C00120442055521
:10032800E555C3941040E97FC012054D755510126C
:1003380004F57F017E007D007C001204420555E52E
:0603480055C3942240E9B8
:01034E00228C
:10025200020168E493A3F8E493A34003F68001F259
:1002620008DFF48029E493A3F85407240CC8C333AD
:10027200C4540F4420C8834004F456800146F6DF7C
:10028200E4800B0102040810204080900518E47EEF
:10029200019360BCA3FF543F30E509541FFEE49371
:1002A200A360010ECF54C025E060A840B8E493A338
:1002B200FAE493A3F8E493A3C8C582C8CAC583CA63
:1002C200F0A3C8C582C8CAC583CADFE9DEE780BE1B
:0105320000C8
:1004A600BB010689828A83E0225002E722BBFE0254
:0904B600E32289828A83E4932287
:1004BF00EB9FF5F0EA9E42F0E99D42F0E89C45F093
:0104CF00220A
:00000001FF
