:100000000228F57F027E00123D0BC285C2B4D29257
:10001000023FAA0238A08FCFE5CD30E7FB75CDC0F7
:10002000AFCF220238267BC37A007DC87C007F0FC9
:100030001227317B097A037DC87C007F101227319B
:10004000023AFC020046C0E0C083C082C0D053AF79
:10005000FEE59A30E021539AFE74042521F582E4EE
:100060003400F583E59BF00521D3E52194037480EA
:1000700094804003752100E59A30E103539AFD43D3
:0E008000AF01D0D0D082D083D0E0320237A4BE
:100093000233EB120C1C7F2C7E01123D0B122FD16D
:1000A3007FF47E01123D0B123B7F120C1C7FF47E0A
:1000B30001123D0B1214887FF47E01123D0B1215C1
:1000C300577FF47E01123D0B120C1C7FF47E01124C
:1000D3003D0B1216267FF47E01123D0B7FF47E0149
:1000E300123D0B1230227FF47E01123D0B1230734E
:1000F3007FF47E01123D0B1230C47FF47E01123D6A
:100103000B1230737FF47E01123D0B1230C47FF467
:100113007E01123D0B122B137FF47E01123D0B7FE8
:10012300F47E01123D0B122A8E7FF47E01123D0BE9
:100133001206007FF47E01123D0B122BE97FF47E41
:1001430001123D0B122C477FF47E01123D0B7FF40D
:100153007E01123D0B122CA57FFA7E00123D0B127D
:100163002D037FF47E01123D0B122CA57FF47E013B
:10017300123D0B122D617FF47E01123D0B122CA553
:100183007FF47E01123D0B1231157FF47E01123D87
:100193000B1231667FF47E01123D0B7FFA7E001253
:1001A3003D0B122CA5122DBF7FF47E01123D0B12C5
:1001B30031B77FF47E01123D0B122DBF7FF47E0118
:1001C300123D0B1232087FF47E01123D0B122DBF3C
:1001D3007F647E00123D0B120B407F647E00123D54
:1001E3000B1223967FF47E01123D0B1212DE7FF475
:1001F3007E01123D0B1234817FC87E00123D0B122B
:100203003BA97FC87E00123D0B123BD37FC87E0003
:10021300123D0B1234817FC87E00123D0B123BA9A5
:100223007FC87E00123D0B1206E07FC87E00123DA0
:100233000B1239167FC87E00123D0B12394D7FC851
:100243007E00123D0B1239847FC87E00123D0B12D3
:1002530039BB7FC87E00123D0B1239F27F647E00EA
:10026300123D0B123A297F647E00123D0B1234CAF1
:100273007FC87E00123D0B122F7D7FC87E00123D8A
:100283000B12207B7F327E00123D0B120CF67FC8CF
:100293007E00123D0B1207C07FC87E00123D0B1279
:1002A30008A07FF47E01123D0B1225C57FF47E0169
:1002B300123D0B12188D7FF47E01123D0B122B7E23
:1002C3007FF47E01123D0B123BFD7FF47E01123D54
:1002D3000B1232597FF47E01123D0B1224587FF426
:1002E3007E01123D0B1232AA123C271232AA123C93
:1002F300271232AA123C277F2C7E01123D0B122EAD
:100303007B7F2C7E01123D0B122E1D7F2C7E011252
:100313003D0B120DCE7F2C7E01123D0B1235137F48
:100323002C7E01123D0B1227C37F2C7E01123D0B45
:10033300123A607F2C7E01123D0B1216F57F2C7E44
:1003430001123D0B12285C7F2C7E01123D0B1235EE
:100353005C7F2C7E01123D0B12285C7F2C7E0112E8
:100363003D0B12355C7F2C7E01123D0B12285C7F06
:100373002C7E01023D0B121E1A7F2C7E01123D0BB7
:100383001234367F2C7E01123D0B123CC77F2C7E2C
:1003930001123D0B12112E7F2C7E01123D0B121206
:1003A300067F2C7E01123D0B1236807F2C7E0112BC
:1003B3003D0B123D887F2C7E01123D0B123EF47FD4
:1003C3002C7E01123D0B122ED17F2C7E01123D0B90
:1003D3007FF47E01123D0B7FF47E01123D0B120C64
:1003E3001C7FF47E01123D0B122FD17FF47E01128C
:1003F3003D0B123B7F120C1C7FF47E01123D0B124E
:1004030014887FF47E01123D0B1215577FF47E0191
:10041300123D0B121EE57F2C7E01123D0B123CE9AF
:100423007FF47E01123D0B7FF47E01123D0B7FF4BE
:100433007E01123D0B7FF47E01123D0B123DA57F21
:10044300F47E01123D0B7FF47E01123D0B7FF47E9F
:1004530001123D0B123C517F2C7E01123D0B123DCC
:10046300C27F2C7E01123D0B123C517F2C7E011268
:100473003D0B123DC27F2C7E01123D0B123C517F7E
:100483002C7E01123D0B123DC27F2C7E01123D0BCF
:10049300120A607F2C7E01123D0B122A097F2C7EEB
:1004A30001123D0B1216267F2C7E01123D0B7F2C71
:1004B3007E01123D0B1230227FF47E01123D0B129E
:1004C30030737FF47E01123D0B1230C47FF47E0142
:1004D300123D0B1230737FF47E01123D0B1230C4B8
:1004E3007FF47E01123D0B122B137FF47E01123D2C
:1004F3000B7FF47E01123D0B1217C27FF47E0112B3
:100503003D0B1221447FF47E01123D0B1236C97F4D
:10051300F47E01123D0B12220A7FF47E01123D0B81
:100523001222D07FF47E01123D0B1221447FF47E10
:1005330001123D0B1213B57FF47E01123D0B1232F3
:10054300FB7FF47E01123D0B123DDF7F2C7E0112F7
:100553003D0B1237127F2C7E01123D0B12334C7F61
:100563002C7E01123D0B123DFC7F2C7E01123D0BB4
:1005730012334C7F2C7E01123D0B123DFC7F2C7EEF
:1005830001123D0B122F277F2C7E01123D0B1213FC
:10059300B57FF47E01123D0B1232FB7FF47E011214
:1005A3003D0B123DDF7F2C7E01123D0B1237127F74
:1005B3002C7E01123D0B12375B7F2C7E01123D0B0B
:1005C300121FB07F2C7E01123D0B121EE57FF47EBD
:1005D30001123D0B7FF47E01123D0B7FF47E01126D
:1005E3003D0B7FF47E01123D0B7FF47E01123D0B28
:1005F300122FD17FF47E01123D0B023B7F7B797A70
:10060300017D2C7C01E4FF1227317BF87A017D2CDC
:100613007C017F011227317B087A027D2C7C017FCC
:10062300021227317BAB7A017D2C7C017F031227D9
:10063300317B657A027D2C7C017F041227317B6933
:100643007A017D2C7C017F051227317B357A027D6F
:100653002C7C017F061227317B0D7A027D2C7C01D5
:100663007F071227317BFD7A017D2C7C017F0812E5
:1006730027317B7A7A017D2C7C017F091227317B1C
:10068300977A027D2C7C017F0A1227317BCB7A0378
:100693007D2C7C017F0B1227317B377A017D2C7CEB
:1006A300017F0C1227317BAD7A017D2C7C017F0DFC
:1006B3001227317BE77A017D2C7C017F0E122731D3
:1006C3007BEA7A017D2C7C017F0F1227317BF47A40
:1006D300017D2C7C017F10122731023AFC7BFE7ACC
:1006E300017D2C7C01E4FF1227317B097A027D2CEA
:1006F3007C017F011227317BCE7A017D2C7C017F27
:10070300021227317BFE7A017D2C7C017F031227A5
:10071300317B4F7A017D2C7C017F041227317B8A48
:100723007A027D2C7C017F051227317BEE7A017DD5
:100733002C7C017F061227317B347A027D2C7C01CD
:100743007F071227317BFA7A017D2C7C017F081207
:1007530027317BF87A017D2C7C017F091227317BBD
:10076300757A027D2C7C017F0A1227317BCD7A00BA
:100773007D2C7C017F0B1227317B2A7A037D2C7C15
:10078300017F0C1227317BB87A017D2C7C017F0D10
:100793001227317BE37A017D2C7C017F0E122731F6
:1007A3007BFE7A017D2C7C017F0F1227317BF37A4C
:1007B300017D2C7C017F10122731023AFC7BF87AF1
:1007C300017D2C7C01E4FF1227317402FBFA7D2C9E
:1007D3007C017F011227317BD77A017D2C7C017F3D
:1007E300021227317B017A027D2C7C017F031227C1
:1007F300317B4D7A027D2C7C017F041227317BAA49
:100803007A017D2C7C017F051227317B007A027DE2
:100813002C7C017F061227317B3A7A027D2C7C01E6
:100823007F071227317BF37A017D2C7C017F08122D
:1008330027317BF57A017D2C7C017F091227317BDF
:10084300507A037D2C7C017F0A1227317BE27A00E8
:100853007D2C7C017F0B1227317B367A037D2C7C28
:10086300017F0C1227317BEE7A007D2C7C017F0DFA
:100873001227317BC77A017D2C7C017F0E12273131
:100883007BFA7A017D2C7C017F0F1227317BF27A70
:10089300017D2C7C017F10122731023AFC7BF87A10
:1008A300017D2C7C01E4FF1227317B037A027D2C2E
:1008B3007C017F011227317BE77A017D2C7C017F4C
:1008C300021227317B147A027D2C7C017F031227CD
:1008D300317BCB7A027D2C7C017F041227317B0A8A
:1008E3007A017D2C7C017F051227317BD37A017D30
:1008F3002C7C017F061227317B207A027D2C7C0120
:100903007F071227317BDF7A017D2C7C017F081260
:1009130027317BF57A017D2C7C017F091227317BFE
:10092300507A037D2C7C017F0A1227317BE27A0007
:100933007D2C7C017F0B1227317B367A037D2C7C47
:10094300017F0C1227317BEE7A007D2C7C017F0D19
:100953001227317BC77A017D2C7C017F0E12273150
:100963007BD27A007D2C7C017F0F1227317B0B7A9F
:10097300037D5E7C017F10122731023AFC7B507AA3
:10098300027D907C01E4FF1227317BFE7A017D908A
:100993007C017F011227317B1C7A027D907C017FD1
:1009A300021227317BFF7A017D907C017F0312279E
:1009B300317BD77A027D907C017F041227317BC87B
:1009C3007A007D907C017F051227317BCD7A017DF2
:1009D300907C017F061227317BDA7A017D907C01BE
:1009E3007F071227317B077A027D907C017F0812F3
:1009F30027317BFD7A017D907C017F091227317BB2
:100A03005A7A037D907C017F0A1227317B817A0316
:100A13007D907C017F0B1227317BAE7A007D907C29
:100A2300017F0C1227317BD17A007D907C017F0DF1
:100A33001227317BE17A017D907C017F0E122731F1
:100A43007BC37A007D907C017F0F1227317B267A4E
:100A5300037D907C017F10122731023AFC7B287AB8
:100A6300027DC87C00E4FF1227317BF47A017DC844
:100A73007C007F011227317BFD7A017DC87C007FDA
:100A8300021227317BAC7A017DC87C007F031227D9
:100A9300317B467A027DC87C007F041227317B8E2E
:100AA3007A017DC87C007F051227317B577A027D4E
:100AB300C87C007F061227317B037A027DC87C0045
:100AC3007F071227317B047A027DC87C007F0812DE
:100AD30027317BD07A017D907C017F091227317BFE
:100AE3004F7A027D907C017F0A1227317BBF7A0304
:100AF3007D907C017F0B1227317B5A7A007D907C9D
:100B0300017F0C1227317BFF7A017D907C017F0DE1
:100B13001227317BEE7A017D907C017F0E12273103
:100B23007BEB7A017DC87C007F0F1227317BF87A3B
:100B3300017DC87C007F10122731023AFC7BF97AD1
:100B4300017D647C00E4FF1227317B077A027D6418
:100B53007C007F011227317B0A7A027D647C007F4F
:100B6300021227317BB97A017D647C007F0312274F
:100B7300317B957A027D647C007F041227317B549C
:100B83007A017D647C007F051227317B417A027DE7
:100B9300647C007F061227317BF47A017D647C003C
:100BA3007F071227317BFC7A017D647C007F08126A
:100BB30027317B007A027D6412272D7B407A027DE8
:100BC300647C007F0A1227317B297A027D647C00D2
:100BD3007F0B1227317BC67A017D647C007F0C1268
:100BE30027317BF57A017D647C007F0D1227317BF1
:100BF300E37A017D647C007F0E1227317BE77A0163
:100C03007D647C007F0F1227317BD87A017D647C61
:100C1300007F10122731023AFC7BF97A017DC87CF0
:100C230000E4FF1227317B077A027DC87C007F0135
:100C33001227317B0A7A027DC87C007F021227319A
:100C43007BB97A017DC87C007F031227317B957ABB
:100C5300027DC87C007F041227317B547A017DC852
:100C63007C007F051227317B417A027DC87C007F9F
:100C7300061227317BF47A017DC87C007F07122797
:100C8300317BFC7A017DC87C007F081227317B0011
:100C93007A0212272B7B407A027DC87C007F0A12DE
:100CA30027317B297A027DC87C007F0B1227317B99
:100CB300C67A017DC87C007F0C1227317BF57A014F
:100CC3007DC87C007F0D1227317BE37A017DC87CD0
:100CD300007F0E1227317BE77A017DC87C007F0FEE
:100CE3001227317BD87A017DC87C007F101227310F
:100CF300023AFC7B157A027DC87C00E4FF1227319F
:100D03007B067A027DC87C007F011227317BD57A6E
:100D1300017DC87C007F021227317BFC7A017DC8EC
:100D23007C007F031227317B8D7A027DC87C007F94
:100D3300041227317B687A017DC87C007F05122766
:100D4300317B2F7A027DC87C007F061227317B40DE
:100D53007A027DC87C007F071227317BF87A017DF8
:100D6300C87C007F081227317BEF1227297B287A62
:100D7300027DC87C007F0A1227317B1E7A017DC861
:100D83007C007F0B1227317B0E7A037DC87C007FAA
:100D93000C1227317BF77A017DC87C007F0D122767
:100DA300317BDF7A017DC87C007F0E1227317BFD0A
:100DB3007A017DC87C007F0F1227317BEE7A017D9B
:100DC300C87C007F10122731023AFC7BF17A017D47
:100DD300C87C00E4FF1227317B047A027DC87C00C3
:100DE3007F011227317B117A027DC87C007F0212BA
:100DF30027317BC37A017DC87C007F031227317BB7
:100E0300857A027DC87C007F041227317B727A01C8
:100E13007DC87C007F051227317B667A027DC87C02
:100E2300007F061227317BCE7A017DC87C007F07C5
:100E33001227317BD07A017DC87C007F08122731CD
:100E43007BDB1227297B367A027DC87C007F0A125E
:100E530027317B8C7A037DC87C007F0B1227317B83
:100E63009D7A007DC87C007F0C1227317BEF7A01CD
:100E73007DC87C007F0D1227317BFC7A017DC87C05
:100E8300007F0E1227317BB57A007DC87C007F0F6F
:100E93001227317BEB7A027DC87C007F1012273149
:100EA300023AFC7BEC7A017DC87C00E4FF12273117
:100EB3007BFD7A017DC87C007F011227317B157A87
:100EC300027DC87C007F021227317B247A017DC812
:100ED3007C007F031227317BF17A017DC87C007F80
:100EE300041227317BD37A007DC87C007F0512274B
:100EF300317BCB7A017DC87C007F061227317BDAF8
:100F03007A017DC87C007F071227317B087A027D36
:100F1300C87C007F081227317BFE1227297B397A90
:100F2300027DC87C007F0A1227317BD27A027DC8FA
:100F33007C007F0B1227317BAD7A007DC87C007F5C
:100F43000C1227317BB87A007DC87C007F0D1227F5
:100F5300317BE27A017DC87C007F0E1227317BC38F
:100F63007A007DC87C007F0F1227317B267A037DB0
:100F7300C87C007F10122731023AFC7B957A027DF0
:100F8300C87C00E4FF1227317BFD7A017DC87C0019
:100F93007F011227317B157A027DC87C007F021204
:100FA30027317B247A017DC87C007F031227317BA4
:100FB300F17A017DC87C007F041227317BD37A004C
:100FC3007DC87C007F051227317BCB7A017DC87CED
:100FD300007F061227317BDA7A017DC87C007F0708
:100FE3001227317B087A027DC87C007F08122731E3
:100FF3007BFD1227297BAE7A017DC87C007F0A1214
:1010030027317B857A037DC87C007F0B1227317BD8
:10101300AA7A007DC87C007F0C1227317BBE7A0040
:101023007DC87C007F0D1227317B1C7A037DC87C31
:10103300007F0E1227317BC37A007DC87C007F0FAF
:101043001227317B267A037DC87C007F101227315B
:10105300023AFC7B4E7A027DC87C00E4FF12273102
:101063007BFF7A017DC87C007F011227317BCC7A1C
:10107300017DC87C007F021227317B8E7A017DC8F7
:101083007C007F031227317B677A027DC87C007F57
:10109300041227317B787A017DC87C007F051227F3
:1010A300317BAA7A027DC87C007F061227317BD868
:1010B3007A017DC87C007F071227317B037A027D8A
:1010C300C87C007F081227317BF71227297B417ADE
:1010D300027DC87C007F0A1227317B6B7A017DC8B1
:1010E3007C007F0B1227317BA87A027DC87C007FAE
:1010F3000C1227317B0E7A027DC87C007F0D1227EC
:10110300317BE07A017DC87C007F0E1227317BBAE8
:101113007A007DC87C007F0F1227317B1B7A037D09
:10112300C87C007F10122731023AFC7BFE7A017DD6
:10113300C87C00E4FF1227317BF47A017DC87C0070
:101143007F011227317B107A027DC87C007F021257
:1011530027317BAD7A017DC87C007F031227317B69
:101163007D7A027DC87C007F041227317B517A018E
:101173007DC87C007F051227317B597A027DC87CAC
:10118300007F061227317BE27A017DC87C007F074E
:101193001227317BF77A017DC87C007F0812273143
:1011A3007BC21227297B727A027DC87C007F0A12D8
:1011B30027317B437A027DC87C007F0B1227317B6A
:1011C300D37A017DC87C007F0C1227317BDF7A0143
:1011D3007DC87C007F0D1227317BE47A017DC87CBA
:1011E300007F0E1227317BE07A017DC87C007F0FE0
:1011F3001227317BE57A017DC87C007F10122731ED
:10120300023AFC7BFE7A017DC87C00E4FF122731A1
:101213007BEB7A017DC87C007F011227317B137A37
:10122300027DC87C007F021227317BAA7A017DC828
:101233007C007F031227317B797A027DC87C007F93
:10124300041227317B547A017DC87C007F05122765
:10125300317B5D7A027DC87C007F061227317BE3F8
:101263007A017DC87C007F071227317BFC7A017DE0
:10127300C87C007F081227317BF11227297B6E7A05
:10128300027DC87C007F0A1227317B407A027DC829
:101293007C007F0B1227317BC17A017DC87C007FE4
:1012A3000C1227317BE17A017DC87C007F0D122768
:1012B300317BE47A017DC87C007F0E1227317BE706
:1012C3007A017DC87C007F0F1227317BE77A017D8D
:1012D300C87C007F10122731023AFC7B147A027D0E
:1012E300C87C00E4FF1227317BF47A017DC87C00BF
:1012F3007F011227317B647A017DC87C007F021253
:1013030027317BC57A017DC87C007F031227317B9F
:10131300D97A007DC87C007F041227317BF27A02E0
:101323007DC87C007F051227317B297A027DC87C2A
:10133300007F061227317BAC7A027DC87C007F07D1
:101343001227317BFF7A017DC87C007F0812273189
:101353007BF51227297B647A027DC87C007F0A1201
:1013630027317401FBFA7D2CFC7F0B1227317B168E
:101373007A037D2C7C017F0C1227317BD87A017D87
:10138300C87C007F0D1227317BEA7A017DC87C007F
:101393007F0E1227317BDE7A017DC87C007F0F121E
:1013A30027317BF67A017DC87C007F10122731023A
:1013B3003AFC7BEE7A017D907C017F011227317B21
:1013C3000B7A027D907C017F021227317BBF7A0169
:1013D3007D907C017F031227317B837A027D907C91
:1013E300017F041227317B5B7A017D907C017F05AD
:1013F3001227317B437A027D907C017F06122731CD
:101403007BFA7A017D907C017F071227317B077A73
:10141300027D907C017F081227317BEA7A017D905F
:101423007C017F091227317B597A027D907C017FF1
:101433000A1227317BA27A017D907C017F0B122750
:10144300317BA07A007D907C017F0C1227317BF8E1
:101453007A017D907C017F0D1227317B257A037DF4
:10146300907C017F0E1227317BDA7A017D907C011B
:101473007F0F1227317BEE7A017D907C017F101262
:101483002731023AFC7B9A7A017DFA7C007F0112B4
:1014930027317B0A7A027DFA7C007F021227317B97
:1014A300B97A017DFA7C007F031227317B957A029A
:1014B3007DFA7C007F041227317B547A017DFA7C0C
:1014C300007F051227317B417A027DFA7C007F067B
:1014D3001227317BF47A017DFA7C007F07122731D2
:1014E3007BF37A017DFA7C007F081227317BE77A50
:1014F300017DFA12272D7BEA7A027DFA7C007F0AAE
:101503001227317BD27A037DFA7C007F0B122731BD
:101513007BD07A017DFA7C007F0C1227317BE57A40
:10152300017DFA7C007F0D1227317BE47A017DFA7D
:101533007C007F0E1227317BE77A017DFA7C007FE6
:101543000F1227317BD87A017DFA7C007F10122796
:1015530031023AFC7B177A027DFA7C007F01122765
:10156300317B0A7A027DFA7C007F021227317BB934
:101573007A017DFA7C007F031227317B957A027D05
:10158300FA7C007F041227317B547A017DFA7C00B8
:101593007F051227317B417A027DFA7C007F061298
:1015A30027317BF47A017DFA7C007F071227317B98
:1015B300587A027DFA7C007F081227317BE57A0195
:1015C3007DFA12272D7B5A7A027DFA7C007F0A125C
:1015D30027317B337A027DFA7C007F0B1227317B24
:1015E3005E7A007DFA7C007F0C1227317B3C7A0106
:1015F3007DFA7C007F0D1227317BE47A017DFA7C32
:10160300007F0E1227317BE77A017DFA7C007F0F82
:101613001227317BD87A017DFA7C007F10122731A3
:10162300023AFC7B047A027D647C007F011227313D
:101633007B287A017D647C007F021227317B867AC6
:10164300027D647C007F031227317B177A027D645D
:101653007C007F041227317BBF7A017D647C007F8D
:10166300051227317B6E7A017D647C007F06122789
:10167300317BDE7A027D647C007F071227317B1782
:101683007A027D647C007F081227317BE37A017D37
:101693006412272D7B527A027D647C007F0A122715
:1016A300317B4D7A027D647C007F0B1227317BD81E
:1016B3007A017D647C007F0C1227317BE17A017D06
:1016C300647C007F0D1227317BE57A017D647C0009
:1016D3007F0E1227317BF27A017D647C007F0F122B
:1016E30027317B047A027D647C007F10122731024C
:1016F3003AFC7BFE7A017DC87C007F011227317B97
:101703002A7A027DC87C007F021227317B867A0108
:101713007DC87C007F031227317BC67A017DC87C9C
:10172300007F041227317B017A027DC87C007F058C
:101733001227317B2A7A027DC87C007F061227316B
:101743007B3B7A027DC87C007F071227317BD77AE7
:10175300017DC87C007F081227317B0D7A02122796
:101763002B7B337A027DC87C007F0A1227317B33BF
:101773007A037DC87C007F0B1227317BE27A007DE0
:10178300C87C007F0C1227317BE17A017DC87C0085
:101793007F0D1227317BE77A017DC87C007F0E1213
:1017A30027317BE17A017DC87C007F0F1227317BD3
:1017B300CE7A017DC87C007F10122731023AFC7B70
:1017C3000A7A027DC87C007F011227317B137A02DB
:1017D3007DC87C007F021227317B977A017DC87C0C
:1017E300007F031227317B517A027DC87C007F047E
:1017F3001227317B887A017DC87C007F051227314F
:101803007B5A7A027DC87C007F061227317B017ADE
:10181300027DC87C007F071227317BF67A017DC8E1
:101823007C007F081227317BEB1227297B5C7A022D
:101833007DC87C007F0A1227317B2A7A027DC87C0F
:10184300007F0B1227317BD07A017DC87C007F0C8F
:101853001227317BE77A017DC87C007F0D12273187
:101863007BE47A017DC87C007F0E1227317BF87AF6
:10187300017DC87C007F0F1227317BDF7A017DC891
:101883007C007F10122731023AFC7BFA7A017DC873
:101893007C007F011227317B0E7A027DC87C007F9A
:1018A300021227317B777A027DC87C007F031227DF
:1018B300317B5D7A037DC87C007F041227317B91E5
:1018C3007A007DC87C007F051227317B837A017DF6
:1018D300C87C007F061227317BEA7A017DC87C0031
:1018E3007F071227317B077A027DC87C007F0812AD
:1018F30027317BE51227297B547A027DC87C007F40
:101903000A1227317B967A017DC87C007F0B122750
:10191300317B827A027DC87C007F0C1227317B12D7
:101923007A027DC87C007F0D1227317BD07A017D3E
:10193300C87C007F0E1227317BBB7A007DC87C00F8
:101943007F0F1227317B277A037DC87C007F10121B
:101953002731023AFC7BFE7A017DC87C007F0112AD
:1019630027317B217A027DC87C007F021227317BDD
:10197300C47A017DC87C007F031227317B707A0211
:101983007DC87C007F041227317B6B7A017DC87C84
:10199300007F051227317B2C7A027DC87C007F06ED
:1019A3001227317BE47A017DC87C007F071227313F
:1019B3007BFA7A017DC87C007F081227317BE01215
:1019C30027297B357A027DC87C007F0A1227317B69
:1019D300367A037DC87C007F0B1227317BE67A00C1
:1019E3007DC87C007F0C1227317BE07A017DC87CA7
:1019F300007F0D1227317B007A027DC87C007F0EA9
:101A03001227317BB57A017DC87C007F0F12273105
:101A13007B2B7A027DC87C007F10122731023AFCAF
:101A23007BFF7A017DC87C007F011227317B147A0A
:101A3300027DC87C007F021227317B277A017DC893
:101A43007C007F031227317BF57A017DC87C007F00
:101A5300041227317BA67A017DC87C007F051227FB
:101A6300317B9A7A027DC87C007F061227317BD7AF
:101A73007A017DC87C007F071227317B067A027DBD
:101A8300C87C007F081227317BFC1227297B207A30
:101A9300027DC87C007F0A1227317BFC7A027DC855
:101AA3007C007F0B1227317B2D7A017DC87C007F60
:101AB3000C1227317402FBFA7DC87C007F0D1227BC
:101AC300317BC07A017DC87C007F0E1227317BC336
:101AD3007A007DC87C007F0F1227317B147A037D47
:101AE300C87C007F10122731023AFC7BFF7A017D0C
:101AF300C87C007F011227317B267A027DC87C00D7
:101B03007F021227317B917A017DC87C007F03120B
:101B130027317BA97A027DC87C007F041227317BA1
:101B2300067A017DC87C007F051227317B247A0267
:101B33007DC87C007F061227317B017A027DC87C39
:101B4300007F071227317B017A027DC87C007F0862
:101B53001227317BF51227297B577A037DC87C0036
:101B63007F0A1227317B047A017DC87C007F0B1228
:101B730027317B197A037DC87C007F0C1227317BC8
:101B8300CC7A007DC87C007F0D1227317BCA7A0195
:101B93007DC87C007F0E1227317BFA7A017DC87CD9
:101BA300007F0F1227317BEA7A017DC87C007F100A
:101BB300122731023AFC7B017A027DC87C007F0147
:101BC3001227317B457A027DC87C007F02122731C0
:101BD3007BEC7A017DC87C007F031227317B147A6A
:101BE300027DC87C007F041227317BCA7A017DC83D
:101BF3007C007F051227317B2C7A027DC87C007F15
:101C0300061227317BB97A017DC87C007F07122732
:101C1300317BFE7A017DC87C007F081227317BF57A
:101C23001227297B5B7A037DC87C007F0A12273148
:101C33007BBF7A007DC87C007F0B1227317B667ADD
:101C4300037DC87C007F0C1227317BC67A007DC8D8
:101C53007C007F0D1227317BCD7A017DC87C007F0C
:101C63000E1227317BF37A017DC87C007F0F122788
:101C7300317BEC7A017DC87C007F10122731023A58
:101C8300FC7B077A027DC87C007F011227317B6EC3
:101C93007A027DC87C007F021227317BE57A017DC1
:101CA300C87C007F031227317BEB7A017DC87C005F
:101CB3007F041227317BF37A017DC87C007F0512F4
:101CC30027317B127A027DC87C007F061227317B85
:101CD300877A017DC87C007F071227317B007A0257
:101CE3007DC87C007F081227317BF21227297B4BAA
:101CF3007A027DC87C007F0A1227317BF97A007D46
:101D0300C87C007F0B1227317B2A7A037DC87C00B5
:101D13007F0C1227317BE97A017DC87C007F0D128D
:101D230027317BEB7A017DC87C007F0E1227317B44
:101D3300EF7A017DC87C007F0F1227317BEA7A019D
:101D43007DC87C007F10122731023AFC7BFF7A01A9
:101D53007DC87C007F011227317B5A7A017DC87CC4
:101D6300007F021227317BD67A017DC87C007F0376
:101D73001227317BDC7A007DC87C007F0412273177
:101D83007BE67A027DC87C007F051227317B0A7AC5
:101D9300027DC87C007F061227317BB37A027DC89F
:101DA3007C007F071227317BFE7A017DC87C007F90
:101DB300081227317BF21227297B4B7A027DC87CDC
:101DC300007F0A1227317B0D7A017DC87C007F0BCF
:101DD3001227317B2A7A037DC87C007F0C122731BE
:101DE3007BE77A017DC87C007F0D1227317BEB7A7C
:101DF300017DC87C007F0E1227317BED7A017DC8FF
:101E03007C007F0F1227317BE87A017DC87C007F3D
:101E130010122731023AFC7402FBFA7DC87C007F62
:101E2300011227317B177A027DC87C007F021227BB
:101E3300317B237A017DC87C007F031227317BE34A
:101E43007A017DC87C007F041227317BDA7A017D19
:101E5300C87C007F051227317B9A7A027DC87C00FB
:101E63007F061227317B117A027DC87C007F07121F
:101E730027317B047A027DC87C007F081227317BDF
:101E8300F51227297B407A037DC87C007F0A12273D
:101E9300317B397A037DC87C007F0B1227317BF9B4
:101EA3007A007DC87C007F0C1227317BE77A007DA6
:101EB300C87C007F0D1227317BCC7A017DC87C0062
:101EC3007F0E1227317BF57A017DC87C007F0F12CC
:101ED30027317BE77A017DC87C007F10122731020E
:101EE3003AFC7BEC7A017DC87C007F011227317BB1
:101EF3000C7A027DC87C007F021227317BAD7A0108
:101F03007DC87C007F031227317B6C7A027DC87CFD
:101F1300007F041227317B787A017DC87C007F051E
:101F23001227317B587A027DC87C007F0612273145
:101F33007BFD7A017DC87C007F071227317B037A02
:101F4300027DC87C007F081227317BD31227297BAF
:101F53004F7A027DC87C007F0A1227317B367A02D2
:101F63007DC87C007F0B1227317BD37A017DC87C2F
:101F7300007F0C1227317BE17A017DC87C007F0D45
:101F83001227317BEE7A017DC87C007F0E12273148
:101F93007BE97A017DC87C007F0F1227317BF17AC0
:101FA300017DC87C007F10122731023AFC7BE47A62
:101FB300017DC87C007F011227317B0B7A027DC82B
:101FC3007C007F021227317BBC7A017DC87C007FB5
:101FD300031227317B797A027DC87C007F041227A4
:101FE300317B5A7A017DC87C007F051227317B44FF
:101FF3007A027DC87C007F061227317BF47A017D4B
:10200300C87C007F071227317B017A027DC87C00E0
:102013007F081227317BF21227297B427A037DC87E
:102023007C007F0A1227317B987A017DC87C007F70
:102033000B1227317B5E7A007DC87C007F0C122750
:10204300317BD87A017DC87C007F0D1227317B312B
:102053007A037DC87C007F0E1227317BAD7A017D28
:10206300C87C007F0F1227317BC97A017DC87C00B1
:102073007F10122731023AFC7B077A027DC87C006D
:102083007F011227317BF27A007DC87C007F021228
:1020930027317BDD7A027DC87C007F031227317BE9
:1020A300C07A027DC87C007F041227317B337A011A
:1020B3007DC87C007F051227317B067A027DC87CB0
:1020C300007F061227317B007A027DC87C007F07E0
:1020D3001227317BD87A017DC87C007F0812273113
:1020E3001227277B507A027DC87C007F0A12273192
:1020F3007B237A017DC87C007F0B1227317B3B7ADF
:10210300037DC87C007F0C1227317BFC7A017DC8DC
:102113007C007F0D1227317BE97A017DC87C007F2B
:102123000E1227317BF77A017DC87C007F0F1227BF
:10213300317BDD7A017DC87C007F10122731023AA2
:10214300FC7B277A027DC87C00E4FF1227317BF7F2
:102153007A017DC87C007F011227317BFD7A017DE6
:10216300C87C007F021227317BAF7A017DC87C00D7
:102173007F031227317B5F7A027DC87C007F0412C4
:1021830027317B7B7A017DC87C007F051227317B59
:10219300557A027DC87C007F061227317B007A02C4
:1021A3007DC87C007F071227317BFE7A017DC87CC6
:1021B300007F081227317BEB7A017D2C7C017F099C
:1021C3001227317BA67A027D2C7C017F0A122731EC
:1021D3007BB27A027D2C7C017F0B1227317B5B7AE9
:1021E300017D2C7C017F0C1227317B887A017D2CA9
:1021F3007C017F0D1227317BF57A017D2C7C017FD9
:102203000E122731023AFC7B277A027DC87C00E458
:10221300FF1227317BF77A017DC87C007F011227EB
:10222300317B0B7A027DC87C007F021227317BB0A1
:102233007A017DC87C007F031227317B737A027D8C
:10224300C87C007F041227317B6B7A017DC87C0038
:102253007F051227317B557A027DC87C007F0612E9
:1022630027317BFA7A017DC87C007F071227317BF7
:10227300FE7A017DC87C007F081227317B3B7A01FF
:102283007D907C017F091227317B9B7A027D907CB4
:10229300017F0A1227317B657A027D907C017F0BD7
:1022A3001227317B037A007D907C017F0C1227314A
:1022B3007B847A017D907C017F0D1227317BE67A46
:1022C300027D907C017F0E122731023AFC7B277A34
:1022D300027DC87C00E4FF1227317BFA7A017DC8B6
:1022E3007C007F011227317B0D7A027DC87C007F41
:1022F300021227317BB17A017DC87C007F0312274C
:10230300317B737A027DC87C007F041227317B6C9A
:102313007A017DC87C007F051227317B537A027DC9
:10232300C87C007F061227317BFA7A017DC87C00C6
:102333007F071227317BFC7A017DC87C007F08125E
:1023430027317B357A017D907C017F091227317B10
:10235300777A027D907C017F0A1227317B137A04FE
:102363007D907C017F0B1227317B9E7A017D907CCF
:10237300017F0C1227317B857A017D907C017F0DD3
:102383001227317BE67A027D907C017F0E12273182
:10239300023AFC7BFE7A017D967C00E4FF12273132
:1023A3007BFF7A017D967C007F011227317B287A9F
:1023B300017D967C007F021227317B867A027D960F
:1023C3007C007F031227317B177A027D967C007F86
:1023D300041227317BBF7A017D967C007F0512278B
:1023E300317B6E7A017D967C007F061227317BDE7E
:1023F3007A027D967C007F071227317B0B7A027D60
:10240300967C007F081227317BE27A017D961227A2
:102413002D7B587A027D967C007F0A1227317B2E12
:102423007A027D967C007F0B1227317BF47A017D43
:10243300967C007F0C1227317BE47A017D967C0029
:102443007F0D1227317BE57A017D967C007F0E128A
:102453002731023AFC7BFA7A017D2C7C017F011241
:1024630027317B0E7A027D2C7C017F021227317B80
:10247300777A027D2C7C017F031227317B5D7A03FF
:102483007D2C7C017F041227317B917A007D2C7C8B
:10249300017F051227317B837A017D2C7C017F0626
:1024A3001227317BEA7A017D2C7C017F07122731C9
:1024B3007B077A027D2C7C017F081227317BDE7A31
:1024C300017D907C017F091227317BB17A017D90D8
:1024D3007C017F0A1227317B637A037D907C017F25
:1024E3000B1227317B747A007D907C017F0C1227BD
:1024F300317B557A027D907C017F0D1227317B3031
:102503007A027D907C017F0E122731023AFC12166B
:10251300F57F2C7E01123D0B12285C7F2C7E01126D
:102523003D0B1219587F2C7E01123D0B1226767F2C
:102533002C7E01123D0B1200267F2C7E01123D0BD7
:10254300121A237F2C7E01123D0B1235A57F2C7EA0
:1025530001123D0B120EA67F2C7E01123D0B120FB2
:102563007E7F2C7E01123D0B1209807F2C7E01128F
:102573003D0B1235EE7F2C7E01123D0B1210567F60
:102583002C7E01123D0B1236377F2C7E01123D0B40
:10259300121AEE7F2C7E01123D0B121BB97F2C7E8B
:1025A30001123D0B121C847F2C7E01123D0B121D68
:1025B3004F7F2C7E01123D0B121E1A7F2C7E0102CF
:1025C3003D0B7B2B7A027D647C007F011227317BDC
:1025D300817A027D647C007F021227317B157A02A7
:1025E3007D647C007F031227317BEF7A027D647C5C
:1025F300007F041227317BB57A007D647C007F0560
:102603001227317B897A017D647C007F0612273192
:102613007BE17A017D647C007F071227317B0D7A91
:10262300027D647C007F081227317BFD1227297B02
:102633003E7A027DC87C007F0A1227317B1C7A0117
:102643007DC87C007F0B1227317B077A037DC87C12
:10265300007F0C1227317B087A027DC87C007F0D36
:102663001227317BEA7A017DC87C007F0E12273165
:10267300023AFC7B017A027DC87C007F011227317C
:102683007B117A027DC87C007F021227317B1F7A7F
:10269300017DC87C007F031227317BF67A017DC858
:1026A3007C007F041227317BBD7A017DC87C007FCB
:1026B300051227317BA07A027DC87C007F06122792
:1026C300317BEA7A017DC87C007F071227317B0CBE
:1026D3007A027DC87C007F081227317BF1122729FB
:1026E3007B7D7A037DC87C007F0A1227317B547A75
:1026F300037DC87C007F0B1227317BE17A007DC804
:102703007C007F0C1227317BCF7A007DC87C007F51
:102713000D1227317BC47A017DC87C007F0E1227FE
:1027230031023AFC7BE47A017DC87C007F098F1576
:102733008C168D178A188B19E4F51AC3E51994FFC3
:10274300E518940340067518037519FFC3E517943C
:10275300FFE516940340067516037517FFE5152468
:10276300292519FDE5182D2517FDE5162DF51A6305
:102773001AFF53AFF7C285D2847FFF123F947FFFC6
:10278300123F94AF15123F947F07123F947F0412B8
:102793003F947F1E123F94AF19123F94E518FF1226
:1027A3003F94AF17123F94E516FF123F94AF1A12EE
:1027B3003F9443AF08D285C2847F647E00023D0B01
:1027C3007BFF7A017DC87C007F011227317B0A7A67
:1027D300027DC87C007F021227317B1D7A027DC8EF
:1027E3007C007F031227317BB77A017DC87C007F91
:1027F300041227317B1E7A027DC87C007F051227D5
:10280300317BDF7A017DC87C007F061227317BE8AC
:102813007A017DC87C007F071227317BFC7A017D1A
:10282300C87C007F081227317B0D7A0212272B7B8D
:10283300337A027DC87C007F0A1227317BE17A015B
:102843007DC87C007F0D1227317BE77A017DC87C30
:10285300007F0E122731023AFC7BFC7A017DC87C93
:10286300007F011227317B347A027DC87C007F020E
:102873001227317B977A017DC87C007F03122731B1
:102883007B7D7A027DC87C007F041227317B597AD5
:10289300017DC87C007F051227317B4D7A027DC8FC
:1028A3007C007F061227317BE37A017DC87C007FA1
:1028B300071227317BFE7A017DC87C007F0812272F
:1028C300317402FBFA12272B7B3D7A027DC87C0010
:1028D3007F0A1227317BF57A017DC87C007F0D12B8
:1028E30027317BF17A017DC87C007F0E12273102EC
:1028F3003AFC787FE4F6D8FD75812902293C02333E
:102903009DE493A3F8E493A34003F68001F208DF68
:10291300F48029E493A3F85407240CC8C333C454A4
:102923000F4420C8834004F456800146F6DFE48058
:102933000B0102040810204080903EA5E47E019321
:1029430060BCA3FF543F30E509541FFEE493A3602A
:10295300010ECF54C025E060A840B8E493A3FAE485
:1029630093A3F8E493A3C8C582C8CAC583CAF0A3D6
:10297300C8C582C8CAC583CADFE9DEE780BE123E86
:1029830019123E35123E51123E6DE5146401607317
:10299300900004E0645B70F27FF47E01123D0BC291
:1029A300AF900004E0FF123FB4900005E0FF123F38
:1029B300B4900005E024FE601514601A14601F141F
:1029C30060272404702F75A0FD123F40801675A068
:1029D300FC123F4F800E75A0FB123FBC800675A012
:1029E300FA123F5EE4F5A0800C75A0F9123F6DE486
:1029F300F5A0751401123D2B7FC87E00123D0BD24A
:102A0300AF8087023E897BFF7A017D647C007F0172
:102A13001227317B137A027D647C007F02122731F7
:102A23007B977A017D647C007F031227317B517A87
:102A3300027D647C007F041227317B887A017D64E8
:102A43007C007F051227317B5A7A027D647C007FEC
:102A5300061227317B017A027D647C007F071227EF
:102A6300317B0B7A027D647C007F081227317BF86F
:102A73007A017DC87C007F0F1227317BDF7A017DCD
:102A8300C87C007F10122731023AFC7B0A7A027D50
:102A9300647C007F011227317B137A027D647C0002
:102AA3007F021227317B977A017D647C007F0312BA
:102AB30027317B517A027D647C007F041227317BAE
:102AC300887A017D647C007F051227317B5A7A0264
:102AD3007D647C007F061227317B017A027D647C52
:102AE300007F071227317BF67A017D647C007F0823
:102AF3001227317BF87A017DC87C007F0F122731C2
:102B03007BDF7A017DC87C007F10122731023AFCFB
:102B13007BE37A017DF47C017F091227317B527AB2
:102B2300027DF47C017F0A1227317B4D7A027DF40A
:102B33007C017F0B1227317BD87A017DF47C017FE6
:102B43000C1227317BE17A017DF47C017F0D122782
:102B5300317BE57A017DF47C017F0E1227317BF214
:102B63007A017DF47C017F0F1227317B047A027D89
:102B7300F47C017F10122731023AFC7BE27A017D5B
:102B8300F47C017F091227317BCC7A037DF47C012D
:102B93007F0A1227317B617A017DF47C017F0B125E
:102BA30027317B827A027D907C017F0C1227317B57
:102BB3008C7A007D2C7C017F0D1227317BD07A012A
:102BC3007D2C7C017F0E1227317BB77A007D2C7C14
:102BD300017F0F1227317B2C7A037D2C7C017F1020
:102BE300122731023AFC7B077A027D2C7C01E4FF39
:102BF3001227317B7A7A017D2C7C017F09122731E0
:102C03007BEA7A017D2C7C017F0A1227317BA77A2C
:102C1300037D2C7C017F0B1227317BE87A007D2C0E
:102C23007C017F0C1227317B327A027D2C7C017F61
:102C33000D1227317BF27A017D2C7C017F0E122746
:102C430031023AFC7BA17A027D2C7C01E4FF12273E
:102C5300317B7B7A017D2C7C017F091227317B201C
:102C63007A027D2C7C017F0A1227317B1C7A037D3B
:102C73002C7C017F0B1227317B817A007D2C7C0118
:102C83007F0C1227317B697A017D2C7C017F0D1229
:102C930027317BEF7A017D2C7C017F0E12273102D5
:102CA3003AFC7BFE7A017D2C7C01E4FF1227317B09
:102CB300C57A017D2C7C017F091227317B437A027F
:102CC3007D2C7C017F0A1227317B447A037D2C7C87
:102CD300017F0B1227317BD27A007D2C7C017F0C84
:102CE3001227317BED7A017D2C7C017F0D12273178
:102CF3007BED7A017D2C7C017F0E122731023AFC99
:102D03007BA17A027DF47C01E4FF1227317B107AE8
:102D1300027DF47C017F091227317B577A037DF40E
:102D23007C017F0A1227317B437A017DF47C017F8A
:102D33000B1227317B547A007DF47C017F0C122720
:102D4300317BEE7A017DF47C017F0D1227317BB656
:102D53007A027DF47C017F0E122731023AFC7B9BC1
:102D63007A017DF47C01E4FF1227317B157A017D22
:102D7300F47C017F091227317B6C7A027DF47C019C
:102D83007F0A1227317BC87A037DF47C017F0B1203
:102D930027317BAA7A027DF47C017F0C1227317BD9
:102DA300B27A007DF47C017F0D1227317BE47A0136
:102DB3007DF47C017F0E122731023AFC7B157A02E7
:102DC3007D2C7C01E4FF1227317BE37A017D2C7C8F
:102DD300017F091227317B477A027D2C7C017F0A10
:102DE3001227317B2A7A027D2C7C017F0B1227313B
:102DF3007BDE7A017D2C7C017F0C1227317BF47AF8
:102E0300017D2C7C017F0D1227317BE47A017D2C1F
:102E13007C017F0E122731023AFC7B257A017D90DB
:102E23007C01E4FF1227317B167A017D907C017FC0
:102E3300091227317B3C7A027D907C017F0A12279D
:102E4300317BD47A037D907C017F0B1227317BA8E1
:102E53007A007D907C017F0C1227317B0D7A017DF6
:102E6300907C017F0D1227317BE47A017D907C01F8
:102E73007F0E122731023AFC7B6A7A017DC87C00FF
:102E8300E4FF1227317B161227297B4D7A027DC876
:102E93007C007F0A1227317B987A037DC87C007FF0
:102EA3000B1227317BC67A007DC87C007F0C12276A
:102EB300317B667A017DC87C007F0D1227317BE46C
:102EC3007A017DC87C007F0E122731023AFC7BAC6D
:102ED3007A027DC87C00E4FF1227317BF212272996
:102EE3007B2F7A037DC87C007F0A1227317BDB7A34
:102EF300027DC87C007F0B1227317BB97A007DC825
:102F03007C007F0C1227317B527A027DC87C007FC4
:102F13000D1227317BD67A027DC87C007F0E1227E3
:102F230031023AFC7BBD7A027DC87C00E4FF1227A4
:102F3300317B4A1227297BBF7A027DC87C007F0A36
:102F43001227317B3B7A027DC87C007F0B1227312D
:102F53007B557A007DC87C007F0C1227317B7D7AFC
:102F6300017DC87C007F0D1227317BAA7A027DC8C0
:102F73007C007F0E122731023AFC7B827A017DC8E6
:102F83007C007F051227317B557A017DC87C007F49
:102F9300061227317BF07A027DC87C007F07122757
:102FA300317B0A7A027DC87C007F08122731122701
:102FB300277B547A027DC87C007F0A1227317BC6A7
:102FC3007A007DC87C007F0B122731023AFC7BC953
:102FD3007A007D907C017F091227317B547A027D30
:102FE300907C017F0A1227317BFF7A037D907C015D
:102FF3007F0B1227317BF27A017D907C017F0C12CB
:1030030027317BEE7A017D907C017F0D1227317B86
:10301300E77A017D907C017F0E122731023AFC7B17
:10302300E87A017D2C7C017F091227317BD77A0254
:103033007D2C7C017F0A1227317B407A037D2C7C17
:10304300017F0B1227317BB97A007D2C7C017F0C29
:103053001227317B637A017D2C7C017F0D1227318E
:103063007BFD7A017D2C7C017F0E122731023AFC15
:103073007BE87A017DF47C017F091227317BD77AC3
:10308300027DF47C017F0A1227317B407A037DF4B1
:103093007C017F0B1227317BB57A007DF47C017FA5
:1030A3000C1227317B107A027DF47C017F0D1227ED
:1030B300317BEF7A027DF47C017F0E122731023AD5
:1030C300FC7B357A017DF47C017F091227317BE794
:1030D3007A017DF47C017F0A1227317B3E7A037DDE
:1030E300F47C017F0B1227317BC27A007DF47C01D3
:1030F3007F0C1227317B697A017DF47C017F0D12ED
:1031030027317BD67A017DF47C017F0E12273102B1
:103113003AFC7BE57A017DF47C017F091227317B40
:10312300C17A017DF47C017F0A1227317B607A0327
:103133007DF47C017F0B1227317BD67A007DF47CF2
:10314300017F0C1227317B147A017DF47C017F0D02
:103153001227317BEC7A017DF47C017F0E1227313B
:10316300023AFC7BE77A017D907C017F09122731CB
:103173007B097A037D907C017F0A1227317B607A79
:10318300037D907C017F0B1227317BD67A007D90E3
:103193007C017F0C1227317B887A027D907C017F32
:1031A3000D1227317BEC7A017D907C017F0E122773
:1031B30031023AFC7B737A017D587C027F09122726
:1031C300317BBC7A027D587C027F0A1227317B3027
:1031D3007A027D587C027F0B1227317BD77A017DDF
:1031E300587C027F0C1227317B607A017D587C0268
:1031F3007F0D1227317B817A027D587C027F0E126C
:103203002731023AFC7BF57A007D587C027F091254
:1032130027317B577A037D587C027F0A1227317B43
:103223002A7A027D587C027F0B1227317BDE7A01DA
:103233007D587C027F0C1227317BD27A007D587C2B
:10324300027F0D1227317BDE7A027D587C027F0ECE
:10325300122731023AFC7BE27A017DF47C017F097B
:103263001227317B837A037DF47C017F0A12273195
:103273007B637A037DF47C017F0B1227317B707AA9
:10328300007DF47C017F0C1227317BB17A007DF441
:103293007C017F0D1227317BD47A017DF47C017F81
:1032A3000E122731023AFC7BE57A017DF47C017F23
:1032B300091227317B617A027DF47C017F0A122790
:1032C300317B567A037DF47C017F0B1227317BAB74
:1032D3007A007DF47C017F0C1227317B817A027D99
:1032E300587C027F0D1227317BB47A027DF47C0176
:1032F3007F0E122731023AFC7BEB7A017D907C0131
:103303007F091227317B557A027D907C017F0A1257
:1033130027317B1C7A037D907C017F0B1227317B45
:103323002A7A027D907C017F0C1227317BBB7A01C4
:103333007D907C017F0D1227317BE27A017D907CA9
:10334300017F0E122731023AFC7B477A017D907C84
:10335300017F091227317BCD7A017D907C017F0AA1
:103363001227317B2E7A037D907C017F0B1227314C
:103373007BCF7A007D907C017F0C1227317B4B7AC7
:10338300027D907C017F0D1227317BAA7A027D900A
:103393007C017F0E122731023AFC123EC01237E93C
:1033A300120003123863123F09E4F5A0120C1CE566
:1033B3001414600F146017240270217BFF7A3F7985
:1033C300C280067BFF7A3F79C9123CA280117BFF42
:1033D3007A3F79D0123CA2123F308003E4F5147F88
:1033E300C87E00123D0B80C7C0E0C083C082C0D03E
:1033F30053AFEFE58430E0215384FE74152523F5A4
:1034030082E43400F583E585F00523C3E5239401C5
:10341300748094804003752300E58430E103538472
:10342300FD900015E0F51443AF10D0D0D082D083C7
:10343300D0E0327B9C7A0212272B7BE87A027DC88C
:103443007C007F0A1227317BB37A037DC87C007F1F
:103453000B1227317B067A007DC87C007F0C122774
:10346300317B397A027DC87C007F0D1227317BE5E1
:103473007A017DC87C007F0E122731023AFC7BDE85
:103483001227297B2B7A027DC87C007F0A12273101
:103493007BA47A007DC87C007F0B1227317BFF7AE7
:1034A300037D907C017F0C1227317BF37A017D90A1
:1034B3007C017F0D1227317BEE7A017D907C017FA9
:1034C3000E122731023AFC7BE31227297B527A0240
:1034D3007DC87C007F0A1227317B0C7A017DC87C72
:1034E300007F0B1227317BF97A027DC87C007F0CA9
:1034F3001227317BEA7A017DC87C007F0D122731C8
:103503007BE97A017DC87C007F0E122731023AFCE9
:103513007BDE1227297B3B7A027DC87C007F0A125F
:1035230027317BAC7A037DC87C007F0B1227317B6C
:103533007B7A007DC87C007F0C1227317BEF7A01F8
:103543007DC87C007F0D1227317BFE7A017DC87C0C
:10355300007F0E122731023AFC7B241227297B9627
:103563007A027DC87C007F0A1227317B2C7A037D87
:10357300C87C007F0B1227317BEC7A007DC87C006E
:103583007F0C1227317B5B7A017DC87C007F0D1293
:1035930027317BF47A027DC87C007F0E122731022B
:1035A3003AFC7BF61227297B337A027DC87C007FA5
:1035B3000A1227317B5D7A037DC87C007F0B1227BB
:1035C300317BB27A007DC87C007F0C1227317BFDF2
:1035D3007A017DC87C007F0D1227317BE87A017D5B
:1035E300C87C007F0E122731023AFC7BF712272991
:1035F3007B617A037DC87C007F0A1227317BFC7ACA
:10360300007DC87C007F0B1227317B157A037DC8B0
:103613007C007F0C1227317BEE7A007DC87C007F13
:103623000D1227317BE07A017DC87C007F0E1227C3
:1036330031023AFC7BF91227297B4A7A037DC87C45
:10364300007F0A1227317BF07A007DC87C007F0B54
:103653001227317B267A037DC87C007F0C12273129
:103663007BD17A007DC87C007F0D1227317BE07A05
:10367300017DC87C007F0E122731023AFC7BEF12DA
:1036830027297B817A027DC87C007F0A1227317B40
:10369300FF7A037DC87C007F0B1227317B0F7A00F2
:1036A3007DC87C007F0C1227317BAB7A017DC87CFF
:1036B300007F0D1227317BE47A017DC87C007F0EE9
:1036C300122731023AFC7B391227297BDF7A017DED
:1036D300907C017F0A1227317B347A037DC87C00FA
:1036E3007F0B1227317BEA7A007D907C017F0C12DD
:1036F30027317B387A027D907C017F0D1227317B45
:10370300E57A027D907C017F0E122731023AFC7B21
:10371300F11227297BCE7A027DC87C007F0A12270B
:10372300317B467A027DC87C007F0B1227317B6890
:103733007A007DC87C007F0C1227317BE17A017D02
:10374300C87C007F0D1227317BE07A017DC87C00A5
:103753007F0E122731023AFC7BF31227297B427A30
:10376300037DC87C007F0A1227317B977A017DC8CD
:103773007C007F0B1227317BA47A007DC87C007FFD
:103783000C1227317BD97A017DC87C007F0D12276B
:10379300317B327A037DC87C007F0E122731023AD7
:1037A300FCC0E0C083C082C0D053AFF7E5AC30E0CB
:1037B3002153ACFE74072522F582E43400F583E53A
:1037C300ADF00522D3E522940E74809480400375F6
:1037D3002200E5AC30E10353ACFD43AF08D0D0D0B9
:1037E30082D083D0E03243BA0153873F7598504368
:1037F3008E01759A5043AC5053AC7043841053847C
:1038030030438440438E0475D7E875D6FF438E104A
:1038130043D12275D57075D4FF75D37075D2FF432C
:10382300D18822C0E0C083C082C0D0C2AC3098200F
:10383300C29874002520F582E43400F583E599F0FD
:103843000520C3E520940474809480400375200010
:10385300309902C299D2ACD0D0D082D083D0E0329A
:10386300C2B47B007A0079087519057F2A123ACA17
:103873007D017F21123F1D7D017F22123F1D7D3778
:103883007F25123F1D7D017F31123F1D7D267F263F
:10389300123F1D7D0F7F20123F1DD2B422C0E0C016
:1038A300F0C083C082C0D075D000C000C001C00288
:1038B300C003C004C005C006C007123EDAD007D05B
:1038C30006D005D004D003D002D001D000D0D0D090
:1038D30082D083D0F0D0E032BB010689828A83E0B4
:1038E300225002E722BBFE02E32289828A83E49309
:1038F30022F8BB010DE58229F582E5833AF583E8D9
:10390300F0225006E92582C8F622BBFE05E925828E
:10391300C8F2227B387A027D2C7C017F0512273185
:103923007BE37A007D2C7C017F061227317B727A40
:10393300027D2C7C017F071227317BEC7A017D2CE1
:103943007C017F08122731023AFC7BA47A007D2C8C
:103953007C017F051227317BE37A007D2C7C017F7C
:10396300061227317B727A027D2C7C017F07122796
:10397300317BEC7A017D2C7C017F08122731023ADE
:10398300FC7BB57A017D2C7C017F051227317B1BE3
:103993007A027D2C7C017F061227317B327A027DED
:1039A3002C7C017F071227317BF37A017D2C7C016C
:1039B3007F08122731023AFC7B097A027D2C7C01B5
:1039C3007F011227317B8D7A017D2C7C017F0212CE
:1039D30027317B467A037D2C7C017F031227317BC1
:1039E3001A7A027D2C7C017F04122731023AFC7B78
:1039F300077A027D907C017F011227317BC57A0112
:103A03007D907C017F021227317BD47A027D907CEA
:103A1300017F031227317B4C7A037D907C017F0465
:103A2300122731023AFC7B077A027D2C7C017F014D
:103A33001227317BBF7A017D2C7C017F0212273153
:103A43007BE47A017D2C7C017F031227317B4B7A47
:103A5300027D2C7C017F04122731023AFC7BFF7A22
:103A6300017DC87C007F011227317BF97A017DC873
:103A73007C007F081227317BE57A017DC87C007FBB
:103A83000F1227317BE57A017DC87C007F10122756
:103A930031023AFC8B1C8A1D891EC292120016AE9B
:103AA30007E4FDEDC3951F50177FFF120016AB1CF3
:103AB300AA1DA91E8D82758300EF1238F40D80E3D1
:103AC300D292D292AF06228B168A178918C292120B
:103AD3000016AE07E4FDEDC395195018AB16051893
:103AE300E518AA177002051714F91238DBFF120044
:103AF300160D80E2D292AF062253AFF7C285D2846D
:103B03007FFF123F947FFF123F947FFE123F947F0B
:103B130002123F947F05123F947FFA123F9443AF02
:103B230008D285C284228B248A25892653AFF7AB1A
:103B330024AA25A9261238DB60130526E526700280
:103B4300052514F91238DBFF123F9480E243AF08D6
:103B5300228B278A28892953AFEFAB27AA28A929C3
:103B63001238DB60130529E5297002052814F912C0
:103B730038DBFF123F9F80E243AF10227BC97A00FC
:103B83007D207C037F091227317B577A027D207CBD
:103B9300037F0A1227317BFF7A037D207C037F0B8F
:103BA300122731023AFC7B7C7A037D907C017F0CE7
:103BB3001227317BF37A017D907C017F0D1227312F
:103BC3007BEE7A017D907C017F0E122731023AFC55
:103BD3007BDE7A017D907C017F091227317B2B7A72
:103BE300027D907C017F0A1227317B127A007D903F
:103BF3007C017F0B122731023AFC7B2A7A027DF487
:103C03007C017F0C1227317BB17A007DF47C017F2C
:103C13000D1227317BD47A017DF47C017F0E1227AC
:103C230031023AFC7BAB7A007DF47C017F0C1227D6
:103C3300317B1A7A027D587C027F0D1227317BB4C7
:103C43007A027DF47C017F0E122731023AFC7B0657
:103C53007A017D907C017F0C1227317B677A027D8C
:103C6300907C017F0D1227317BBF7A027D907C010E
:103C73007F0E122731023AFC7F07123F7CAC07AD5F
:103C8300047F27123F1DEC30E612751F017F61127E
:103C93003A977DFF7FE2123F1D7F40227F00228BF8
:103CA300158A168917AB15AA16A9171238DB6013E4
:103CB3000517E5177002051614F91238DBFF123FDA
:103CC300B480E2227BAD1227297BE97A017DC87C8F
:103CD300007F0A1227317BB27A037DC87C007F0BF9
:103CE300122731023AFC7BEF1227297B477A027DA8
:103CF300C87C007F0A1227317BCB7A037DC87C0006
:103D03007F0B122731023AFCE4FDFCC3ED9FEC9ECE
:103D13005015E4FBFA0BBB00010ABA04F8BB4CF5DF
:103D23000DBD00010C80E422E4FFEFC39403748013
:103D33009480500F74042FF582E43400F583E4F08B
:103D43000F80E7E4F52122E4FFEFC3940E7480941F
:103D530080500F74072FF582E43400F583E4F00FED
:103D630080E7E4F52222E4FFEFC39401748094809A
:103D7300500F74152FF582E43400F583E4F00F80BF
:103D8300E7E4F523227BCE7A027DC87C007F0A120A
:103D930027317B5B7A027DC87C007F0D12273102BD
:103DA3003AFC7B1F7A027D2C7C017F0B1227317B2F
:103DB300067A017DC87C007F0C122731023AFC7B16
:103DC300CB7A017D907C017F0D1227317BBE7A0275
:103DD3007D907C017F0E122731023AFC7B227A010F
:103DE3007D907C017F091227317BE77A017D907CEE
:103DF300017F0A122731023AFC7B447A027D907CD0
:103E0300017F0A1227317BBB7A017D907C017F0DF4
:103E1300122731023AFC53AFFE7FA0123F897FA0E5
:103E2300123F897FA0123F8943AF017FE87E0302DF
:103E33003D0B53AFFE7FA1123F89E4FF123F89E49C
:103E4300FF123F8943AF017FE87E03023D0B53AF6F
:103E5300FE7FA2123F89E4FF123F89E4FF123F89EC
:103E630043AF017FE87E03023D0B53AFFE7FAB12EE
:103E73003F897FAB123F89E4FF123F8943AF017F44
:103E8300E87E03023D0B53AFFE7FAC123F897FAC4C
:103E9300123F89E4FF123F8943AF017FE87E0302AB
:103EA3003D0B012000012100012200012300050D2B
:103EB300E1E2E3E4E50508E1E2E3E4E500E4F593A8
:103EC300F594F591F592F595F596F5B1F5B2F5B34F
:103ED300F5B4F5C9F5CA227B007A007912123C7B4E
:103EE300EF6440700B851214F5127FC8FE123D0B70
:103EF300227BEF1227297B7A7A017DC87C007F0D14
:103F0300122731023AFCD2AC43AF0143AF0843AFAF
:103F130010C28BD2AAD28AD2AF22AE05C2921200AD
:103F230016AD07AF06120016D292AF052212009605
:103F3300122511120379120C1C7514012200007F43
:103F43006A7E0F7D83DDFEDEFCDFFA2200007FD375
:103F53007E1E7D0BDDFEDEFCDFFA2200007FFD7E90
:103F6300237DDCDDFEDEFCDFFA2200007F947E157C
:103F73007D53DDFEDEFCDFFA22C2921200167FFFC4
:103F8300120016D292228F9BE59A30E1FB539AFDE1
:103F9300228FADE5AC30E1FB53ACFD228F85E58488
:103FA30030E1FB5384FD22E4F5CF75CDC075CED04F
:103FB300228F993099FDC29922123F4F023F4F3011
:103FC30078303020200030783031202000307830B5
:043FD3003220200078
:00000001FF
